{
  "contracts/EcellShop.sol": {
    "EcellShop": {
      "abi": [
        {
          "inputs": [],
          "stateMutability": "nonpayable",
          "type": "constructor"
        },
        {
          "inputs": [
            {
              "internalType": "uint256",
              "name": "productID",
              "type": "uint256"
            },
            {
              "internalType": "string",
              "name": "_name",
              "type": "string"
            },
            {
              "internalType": "uint256",
              "name": "_price",
              "type": "uint256"
            },
            {
              "internalType": "uint256",
              "name": "_quantity",
              "type": "uint256"
            },
            {
              "internalType": "string",
              "name": "_description",
              "type": "string"
            },
            {
              "internalType": "string",
              "name": "_image",
              "type": "string"
            },
            {
              "internalType": "string",
              "name": "_category",
              "type": "string"
            }
          ],
          "name": "addProduct",
          "outputs": [],
          "stateMutability": "nonpayable",
          "type": "function"
        },
        {
          "inputs": [
            {
              "internalType": "string",
              "name": "_name",
              "type": "string"
            },
            {
              "internalType": "string",
              "name": "_email",
              "type": "string"
            }
          ],
          "name": "createAccount",
          "outputs": [],
          "stateMutability": "nonpayable",
          "type": "function"
        },
        {
          "inputs": [
            {
              "internalType": "uint256",
              "name": "_index",
              "type": "uint256"
            }
          ],
          "name": "getOrdersPlaced",
          "outputs": [
            {
              "internalType": "uint256",
              "name": "",
              "type": "uint256"
            },
            {
              "internalType": "uint256",
              "name": "",
              "type": "uint256"
            },
            {
              "internalType": "address",
              "name": "",
              "type": "address"
            }
          ],
          "stateMutability": "view",
          "type": "function"
        },
        {
          "inputs": [
            {
              "internalType": "uint256",
              "name": "",
              "type": "uint256"
            }
          ],
          "name": "productList",
          "outputs": [
            {
              "internalType": "uint256",
              "name": "id",
              "type": "uint256"
            },
            {
              "internalType": "string",
              "name": "name",
              "type": "string"
            },
            {
              "internalType": "uint256",
              "name": "price",
              "type": "uint256"
            },
            {
              "internalType": "uint256",
              "name": "quantity",
              "type": "uint256"
            },
            {
              "internalType": "string",
              "name": "description",
              "type": "string"
            },
            {
              "internalType": "string",
              "name": "image",
              "type": "string"
            },
            {
              "internalType": "string",
              "name": "category",
              "type": "string"
            },
            {
              "internalType": "bool",
              "name": "isActive",
              "type": "bool"
            }
          ],
          "stateMutability": "view",
          "type": "function"
        }
      ],
      "evm": {
        "bytecode": {
          "linkReferences": {},
          "object": "608060405234801561001057600080fd5b50600080546001600160a01b03191633179055610b23806100326000396000f3fe608060405234801561001057600080fd5b506004361061004c5760003560e01c80631928928714610051578063528c87d21461006657806399f33e6714610096578063a3061742146100a9575b600080fd5b61006461005f366004610878565b6100e0565b005b6100796100743660046108dc565b610138565b60405161008d989796959493929190610a0c565b60405180910390f35b6100646100a43660046108f5565b6103af565b6100bc6100b73660046108dc565b610688565b6040805193845260208401929092526001600160a01b03169082015260600161008d565b6040805180820182528381526020808201849052336000908152600482529290922081518051929384936101179284920190610752565b5060208281015180516101309260018501920190610752565b505050505050565b6002818154811061014857600080fd5b6000918252602090912060089091020180546001820180549193509061016d90610a86565b80601f016020809104026020016040519081016040528092919081815260200182805461019990610a86565b80156101e65780601f106101bb576101008083540402835291602001916101e6565b820191906000526020600020905b8154815290600101906020018083116101c957829003601f168201915b50505050509080600201549080600301549080600401805461020790610a86565b80601f016020809104026020016040519081016040528092919081815260200182805461023390610a86565b80156102805780601f1061025557610100808354040283529160200191610280565b820191906000526020600020905b81548152906001019060200180831161026357829003601f168201915b50505050509080600501805461029590610a86565b80601f01602080910402602001604051908101604052809291908181526020018280546102c190610a86565b801561030e5780601f106102e35761010080835404028352916020019161030e565b820191906000526020600020905b8154815290600101906020018083116102f157829003601f168201915b50505050509080600601805461032390610a86565b80601f016020809104026020016040519081016040528092919081815260200182805461034f90610a86565b801561039c5780601f106103715761010080835404028352916020019161039c565b820191906000526020600020905b81548152906001019060200180831161037f57829003601f168201915b5050506007909301549192505060ff1688565b60008781526001602052604090206007015460ff16156103ce57600080fd5b60408051610100810182528881526020808201898152928201889052606082018790526080820186905260a0820185905260c08201849052600160e0830181905260028054918201815560005282517f405787fa12a823e0f2b7631cc41b3ba8828b3321ca811111fa75cd3aa3bb5ace600890920291820190815593518051939485949093610481937f405787fa12a823e0f2b7631cc41b3ba8828b3321ca811111fa75cd3aa3bb5acf01920190610752565b506040820151600282015560608201516003820155608082015180516104b1916004840191602090910190610752565b5060a082015180516104cd916005840191602090910190610752565b5060c082015180516104e9916006840191602090910190610752565b5060e091909101516007909101805460ff191691151591909117905560008881526001602081815260409092208a8155895161052d939190920191908a0190610752565b5060008881526001602090815260409091206002810188905560038101879055855161056192600490920191870190610752565b506000888152600160209081526040909120845161058792600590920191860190610752565b50600088815260016020908152604090912083516105ad92600690920191850190610752565b508060028260000151815481106105c6576105c6610ac1565b90600052602060002090600802016000820151816000015560208201518160010190805190602001906105fa929190610752565b5060408201516002820155606082015160038201556080820151805161062a916004840191602090910190610752565b5060a08201518051610646916005840191602090910190610752565b5060c08201518051610662916006840191602090910190610752565b5060e091909101516007909101805460ff19169115159190911790555050505050505050565b336000908152600360205260408120805482918291859081106106ad576106ad610ac1565b60009182526020808320600590920290910154338352600390915260409091208054869081106106df576106df610ac1565b90600052602060002090600502016001015460036000336001600160a01b03166001600160a01b03168152602001908152602001600020868154811061072757610727610ac1565b600091825260209091206002600590920201015491945092506001600160a01b031690509193909250565b82805461075e90610a86565b90600052602060002090601f01602090048101928261078057600085556107c6565b82601f1061079957805160ff19168380011785556107c6565b828001600101855582156107c6579182015b828111156107c65782518255916020019190600101906107ab565b506107d29291506107d6565b5090565b5b808211156107d257600081556001016107d7565b600082601f8301126107fc57600080fd5b813567ffffffffffffffff8082111561081757610817610ad7565b604051601f8301601f19908116603f0116810190828211818310171561083f5761083f610ad7565b8160405283815286602085880101111561085857600080fd5b836020870160208301376000602085830101528094505050505092915050565b6000806040838503121561088b57600080fd5b823567ffffffffffffffff808211156108a357600080fd5b6108af868387016107eb565b935060208501359150808211156108c557600080fd5b506108d2858286016107eb565b9150509250929050565b6000602082840312156108ee57600080fd5b5035919050565b600080600080600080600060e0888a03121561091057600080fd5b87359650602088013567ffffffffffffffff8082111561092f57600080fd5b61093b8b838c016107eb565b975060408a0135965060608a0135955060808a013591508082111561095f57600080fd5b61096b8b838c016107eb565b945060a08a013591508082111561098157600080fd5b61098d8b838c016107eb565b935060c08a01359150808211156109a357600080fd5b506109b08a828b016107eb565b91505092959891949750929550565b6000815180845260005b818110156109e5576020818501810151868301820152016109c9565b818111156109f7576000602083870101525b50601f01601f19169290920160200192915050565b60006101008a8352806020840152610a268184018b6109bf565b90508860408401528760608401528281036080840152610a4681886109bf565b905082810360a0840152610a5a81876109bf565b905082810360c0840152610a6e81866109bf565b91505082151560e08301529998505050505050505050565b600181811c90821680610a9a57607f821691505b60208210811415610abb57634e487b7160e01b600052602260045260246000fd5b50919050565b634e487b7160e01b600052603260045260246000fd5b634e487b7160e01b600052604160045260246000fdfea264697066735822122036ad228853af3d21f0ac190a85a511f0f53a5cf32e9af3ee491c23c4b5f2714b64736f6c63430008070033",
          "opcodes": "PUSH1 0x80 PUSH1 0x40 MSTORE CALLVALUE DUP1 ISZERO PUSH2 0x10 JUMPI PUSH1 0x0 DUP1 REVERT JUMPDEST POP PUSH1 0x0 DUP1 SLOAD PUSH1 0x1 PUSH1 0x1 PUSH1 0xA0 SHL SUB NOT AND CALLER OR SWAP1 SSTORE PUSH2 0xB23 DUP1 PUSH2 0x32 PUSH1 0x0 CODECOPY PUSH1 0x0 RETURN INVALID PUSH1 0x80 PUSH1 0x40 MSTORE CALLVALUE DUP1 ISZERO PUSH2 0x10 JUMPI PUSH1 0x0 DUP1 REVERT JUMPDEST POP PUSH1 0x4 CALLDATASIZE LT PUSH2 0x4C JUMPI PUSH1 0x0 CALLDATALOAD PUSH1 0xE0 SHR DUP1 PUSH4 0x19289287 EQ PUSH2 0x51 JUMPI DUP1 PUSH4 0x528C87D2 EQ PUSH2 0x66 JUMPI DUP1 PUSH4 0x99F33E67 EQ PUSH2 0x96 JUMPI DUP1 PUSH4 0xA3061742 EQ PUSH2 0xA9 JUMPI JUMPDEST PUSH1 0x0 DUP1 REVERT JUMPDEST PUSH2 0x64 PUSH2 0x5F CALLDATASIZE PUSH1 0x4 PUSH2 0x878 JUMP JUMPDEST PUSH2 0xE0 JUMP JUMPDEST STOP JUMPDEST PUSH2 0x79 PUSH2 0x74 CALLDATASIZE PUSH1 0x4 PUSH2 0x8DC JUMP JUMPDEST PUSH2 0x138 JUMP JUMPDEST PUSH1 0x40 MLOAD PUSH2 0x8D SWAP9 SWAP8 SWAP7 SWAP6 SWAP5 SWAP4 SWAP3 SWAP2 SWAP1 PUSH2 0xA0C JUMP JUMPDEST PUSH1 0x40 MLOAD DUP1 SWAP2 SUB SWAP1 RETURN JUMPDEST PUSH2 0x64 PUSH2 0xA4 CALLDATASIZE PUSH1 0x4 PUSH2 0x8F5 JUMP JUMPDEST PUSH2 0x3AF JUMP JUMPDEST PUSH2 0xBC PUSH2 0xB7 CALLDATASIZE PUSH1 0x4 PUSH2 0x8DC JUMP JUMPDEST PUSH2 0x688 JUMP JUMPDEST PUSH1 0x40 DUP1 MLOAD SWAP4 DUP5 MSTORE PUSH1 0x20 DUP5 ADD SWAP3 SWAP1 SWAP3 MSTORE PUSH1 0x1 PUSH1 0x1 PUSH1 0xA0 SHL SUB AND SWAP1 DUP3 ADD MSTORE PUSH1 0x60 ADD PUSH2 0x8D JUMP JUMPDEST PUSH1 0x40 DUP1 MLOAD DUP1 DUP3 ADD DUP3 MSTORE DUP4 DUP2 MSTORE PUSH1 0x20 DUP1 DUP3 ADD DUP5 SWAP1 MSTORE CALLER PUSH1 0x0 SWAP1 DUP2 MSTORE PUSH1 0x4 DUP3 MSTORE SWAP3 SWAP1 SWAP3 KECCAK256 DUP2 MLOAD DUP1 MLOAD SWAP3 SWAP4 DUP5 SWAP4 PUSH2 0x117 SWAP3 DUP5 SWAP3 ADD SWAP1 PUSH2 0x752 JUMP JUMPDEST POP PUSH1 0x20 DUP3 DUP2 ADD MLOAD DUP1 MLOAD PUSH2 0x130 SWAP3 PUSH1 0x1 DUP6 ADD SWAP3 ADD SWAP1 PUSH2 0x752 JUMP JUMPDEST POP POP POP POP POP POP JUMP JUMPDEST PUSH1 0x2 DUP2 DUP2 SLOAD DUP2 LT PUSH2 0x148 JUMPI PUSH1 0x0 DUP1 REVERT JUMPDEST PUSH1 0x0 SWAP2 DUP3 MSTORE PUSH1 0x20 SWAP1 SWAP2 KECCAK256 PUSH1 0x8 SWAP1 SWAP2 MUL ADD DUP1 SLOAD PUSH1 0x1 DUP3 ADD DUP1 SLOAD SWAP2 SWAP4 POP SWAP1 PUSH2 0x16D SWAP1 PUSH2 0xA86 JUMP JUMPDEST DUP1 PUSH1 0x1F ADD PUSH1 0x20 DUP1 SWAP2 DIV MUL PUSH1 0x20 ADD PUSH1 0x40 MLOAD SWAP1 DUP2 ADD PUSH1 0x40 MSTORE DUP1 SWAP3 SWAP2 SWAP1 DUP2 DUP2 MSTORE PUSH1 0x20 ADD DUP3 DUP1 SLOAD PUSH2 0x199 SWAP1 PUSH2 0xA86 JUMP JUMPDEST DUP1 ISZERO PUSH2 0x1E6 JUMPI DUP1 PUSH1 0x1F LT PUSH2 0x1BB JUMPI PUSH2 0x100 DUP1 DUP4 SLOAD DIV MUL DUP4 MSTORE SWAP2 PUSH1 0x20 ADD SWAP2 PUSH2 0x1E6 JUMP JUMPDEST DUP3 ADD SWAP2 SWAP1 PUSH1 0x0 MSTORE PUSH1 0x20 PUSH1 0x0 KECCAK256 SWAP1 JUMPDEST DUP2 SLOAD DUP2 MSTORE SWAP1 PUSH1 0x1 ADD SWAP1 PUSH1 0x20 ADD DUP1 DUP4 GT PUSH2 0x1C9 JUMPI DUP3 SWAP1 SUB PUSH1 0x1F AND DUP3 ADD SWAP2 JUMPDEST POP POP POP POP POP SWAP1 DUP1 PUSH1 0x2 ADD SLOAD SWAP1 DUP1 PUSH1 0x3 ADD SLOAD SWAP1 DUP1 PUSH1 0x4 ADD DUP1 SLOAD PUSH2 0x207 SWAP1 PUSH2 0xA86 JUMP JUMPDEST DUP1 PUSH1 0x1F ADD PUSH1 0x20 DUP1 SWAP2 DIV MUL PUSH1 0x20 ADD PUSH1 0x40 MLOAD SWAP1 DUP2 ADD PUSH1 0x40 MSTORE DUP1 SWAP3 SWAP2 SWAP1 DUP2 DUP2 MSTORE PUSH1 0x20 ADD DUP3 DUP1 SLOAD PUSH2 0x233 SWAP1 PUSH2 0xA86 JUMP JUMPDEST DUP1 ISZERO PUSH2 0x280 JUMPI DUP1 PUSH1 0x1F LT PUSH2 0x255 JUMPI PUSH2 0x100 DUP1 DUP4 SLOAD DIV MUL DUP4 MSTORE SWAP2 PUSH1 0x20 ADD SWAP2 PUSH2 0x280 JUMP JUMPDEST DUP3 ADD SWAP2 SWAP1 PUSH1 0x0 MSTORE PUSH1 0x20 PUSH1 0x0 KECCAK256 SWAP1 JUMPDEST DUP2 SLOAD DUP2 MSTORE SWAP1 PUSH1 0x1 ADD SWAP1 PUSH1 0x20 ADD DUP1 DUP4 GT PUSH2 0x263 JUMPI DUP3 SWAP1 SUB PUSH1 0x1F AND DUP3 ADD SWAP2 JUMPDEST POP POP POP POP POP SWAP1 DUP1 PUSH1 0x5 ADD DUP1 SLOAD PUSH2 0x295 SWAP1 PUSH2 0xA86 JUMP JUMPDEST DUP1 PUSH1 0x1F ADD PUSH1 0x20 DUP1 SWAP2 DIV MUL PUSH1 0x20 ADD PUSH1 0x40 MLOAD SWAP1 DUP2 ADD PUSH1 0x40 MSTORE DUP1 SWAP3 SWAP2 SWAP1 DUP2 DUP2 MSTORE PUSH1 0x20 ADD DUP3 DUP1 SLOAD PUSH2 0x2C1 SWAP1 PUSH2 0xA86 JUMP JUMPDEST DUP1 ISZERO PUSH2 0x30E JUMPI DUP1 PUSH1 0x1F LT PUSH2 0x2E3 JUMPI PUSH2 0x100 DUP1 DUP4 SLOAD DIV MUL DUP4 MSTORE SWAP2 PUSH1 0x20 ADD SWAP2 PUSH2 0x30E JUMP JUMPDEST DUP3 ADD SWAP2 SWAP1 PUSH1 0x0 MSTORE PUSH1 0x20 PUSH1 0x0 KECCAK256 SWAP1 JUMPDEST DUP2 SLOAD DUP2 MSTORE SWAP1 PUSH1 0x1 ADD SWAP1 PUSH1 0x20 ADD DUP1 DUP4 GT PUSH2 0x2F1 JUMPI DUP3 SWAP1 SUB PUSH1 0x1F AND DUP3 ADD SWAP2 JUMPDEST POP POP POP POP POP SWAP1 DUP1 PUSH1 0x6 ADD DUP1 SLOAD PUSH2 0x323 SWAP1 PUSH2 0xA86 JUMP JUMPDEST DUP1 PUSH1 0x1F ADD PUSH1 0x20 DUP1 SWAP2 DIV MUL PUSH1 0x20 ADD PUSH1 0x40 MLOAD SWAP1 DUP2 ADD PUSH1 0x40 MSTORE DUP1 SWAP3 SWAP2 SWAP1 DUP2 DUP2 MSTORE PUSH1 0x20 ADD DUP3 DUP1 SLOAD PUSH2 0x34F SWAP1 PUSH2 0xA86 JUMP JUMPDEST DUP1 ISZERO PUSH2 0x39C JUMPI DUP1 PUSH1 0x1F LT PUSH2 0x371 JUMPI PUSH2 0x100 DUP1 DUP4 SLOAD DIV MUL DUP4 MSTORE SWAP2 PUSH1 0x20 ADD SWAP2 PUSH2 0x39C JUMP JUMPDEST DUP3 ADD SWAP2 SWAP1 PUSH1 0x0 MSTORE PUSH1 0x20 PUSH1 0x0 KECCAK256 SWAP1 JUMPDEST DUP2 SLOAD DUP2 MSTORE SWAP1 PUSH1 0x1 ADD SWAP1 PUSH1 0x20 ADD DUP1 DUP4 GT PUSH2 0x37F JUMPI DUP3 SWAP1 SUB PUSH1 0x1F AND DUP3 ADD SWAP2 JUMPDEST POP POP POP PUSH1 0x7 SWAP1 SWAP4 ADD SLOAD SWAP2 SWAP3 POP POP PUSH1 0xFF AND DUP9 JUMP JUMPDEST PUSH1 0x0 DUP8 DUP2 MSTORE PUSH1 0x1 PUSH1 0x20 MSTORE PUSH1 0x40 SWAP1 KECCAK256 PUSH1 0x7 ADD SLOAD PUSH1 0xFF AND ISZERO PUSH2 0x3CE JUMPI PUSH1 0x0 DUP1 REVERT JUMPDEST PUSH1 0x40 DUP1 MLOAD PUSH2 0x100 DUP2 ADD DUP3 MSTORE DUP9 DUP2 MSTORE PUSH1 0x20 DUP1 DUP3 ADD DUP10 DUP2 MSTORE SWAP3 DUP3 ADD DUP9 SWAP1 MSTORE PUSH1 0x60 DUP3 ADD DUP8 SWAP1 MSTORE PUSH1 0x80 DUP3 ADD DUP7 SWAP1 MSTORE PUSH1 0xA0 DUP3 ADD DUP6 SWAP1 MSTORE PUSH1 0xC0 DUP3 ADD DUP5 SWAP1 MSTORE PUSH1 0x1 PUSH1 0xE0 DUP4 ADD DUP2 SWAP1 MSTORE PUSH1 0x2 DUP1 SLOAD SWAP2 DUP3 ADD DUP2 SSTORE PUSH1 0x0 MSTORE DUP3 MLOAD PUSH32 0x405787FA12A823E0F2B7631CC41B3BA8828B3321CA811111FA75CD3AA3BB5ACE PUSH1 0x8 SWAP1 SWAP3 MUL SWAP2 DUP3 ADD SWAP1 DUP2 SSTORE SWAP4 MLOAD DUP1 MLOAD SWAP4 SWAP5 DUP6 SWAP5 SWAP1 SWAP4 PUSH2 0x481 SWAP4 PUSH32 0x405787FA12A823E0F2B7631CC41B3BA8828B3321CA811111FA75CD3AA3BB5ACF ADD SWAP3 ADD SWAP1 PUSH2 0x752 JUMP JUMPDEST POP PUSH1 0x40 DUP3 ADD MLOAD PUSH1 0x2 DUP3 ADD SSTORE PUSH1 0x60 DUP3 ADD MLOAD PUSH1 0x3 DUP3 ADD SSTORE PUSH1 0x80 DUP3 ADD MLOAD DUP1 MLOAD PUSH2 0x4B1 SWAP2 PUSH1 0x4 DUP5 ADD SWAP2 PUSH1 0x20 SWAP1 SWAP2 ADD SWAP1 PUSH2 0x752 JUMP JUMPDEST POP PUSH1 0xA0 DUP3 ADD MLOAD DUP1 MLOAD PUSH2 0x4CD SWAP2 PUSH1 0x5 DUP5 ADD SWAP2 PUSH1 0x20 SWAP1 SWAP2 ADD SWAP1 PUSH2 0x752 JUMP JUMPDEST POP PUSH1 0xC0 DUP3 ADD MLOAD DUP1 MLOAD PUSH2 0x4E9 SWAP2 PUSH1 0x6 DUP5 ADD SWAP2 PUSH1 0x20 SWAP1 SWAP2 ADD SWAP1 PUSH2 0x752 JUMP JUMPDEST POP PUSH1 0xE0 SWAP2 SWAP1 SWAP2 ADD MLOAD PUSH1 0x7 SWAP1 SWAP2 ADD DUP1 SLOAD PUSH1 0xFF NOT AND SWAP2 ISZERO ISZERO SWAP2 SWAP1 SWAP2 OR SWAP1 SSTORE PUSH1 0x0 DUP9 DUP2 MSTORE PUSH1 0x1 PUSH1 0x20 DUP2 DUP2 MSTORE PUSH1 0x40 SWAP1 SWAP3 KECCAK256 DUP11 DUP2 SSTORE DUP10 MLOAD PUSH2 0x52D SWAP4 SWAP2 SWAP1 SWAP3 ADD SWAP2 SWAP1 DUP11 ADD SWAP1 PUSH2 0x752 JUMP JUMPDEST POP PUSH1 0x0 DUP9 DUP2 MSTORE PUSH1 0x1 PUSH1 0x20 SWAP1 DUP2 MSTORE PUSH1 0x40 SWAP1 SWAP2 KECCAK256 PUSH1 0x2 DUP2 ADD DUP9 SWAP1 SSTORE PUSH1 0x3 DUP2 ADD DUP8 SWAP1 SSTORE DUP6 MLOAD PUSH2 0x561 SWAP3 PUSH1 0x4 SWAP1 SWAP3 ADD SWAP2 DUP8 ADD SWAP1 PUSH2 0x752 JUMP JUMPDEST POP PUSH1 0x0 DUP9 DUP2 MSTORE PUSH1 0x1 PUSH1 0x20 SWAP1 DUP2 MSTORE PUSH1 0x40 SWAP1 SWAP2 KECCAK256 DUP5 MLOAD PUSH2 0x587 SWAP3 PUSH1 0x5 SWAP1 SWAP3 ADD SWAP2 DUP7 ADD SWAP1 PUSH2 0x752 JUMP JUMPDEST POP PUSH1 0x0 DUP9 DUP2 MSTORE PUSH1 0x1 PUSH1 0x20 SWAP1 DUP2 MSTORE PUSH1 0x40 SWAP1 SWAP2 KECCAK256 DUP4 MLOAD PUSH2 0x5AD SWAP3 PUSH1 0x6 SWAP1 SWAP3 ADD SWAP2 DUP6 ADD SWAP1 PUSH2 0x752 JUMP JUMPDEST POP DUP1 PUSH1 0x2 DUP3 PUSH1 0x0 ADD MLOAD DUP2 SLOAD DUP2 LT PUSH2 0x5C6 JUMPI PUSH2 0x5C6 PUSH2 0xAC1 JUMP JUMPDEST SWAP1 PUSH1 0x0 MSTORE PUSH1 0x20 PUSH1 0x0 KECCAK256 SWAP1 PUSH1 0x8 MUL ADD PUSH1 0x0 DUP3 ADD MLOAD DUP2 PUSH1 0x0 ADD SSTORE PUSH1 0x20 DUP3 ADD MLOAD DUP2 PUSH1 0x1 ADD SWAP1 DUP1 MLOAD SWAP1 PUSH1 0x20 ADD SWAP1 PUSH2 0x5FA SWAP3 SWAP2 SWAP1 PUSH2 0x752 JUMP JUMPDEST POP PUSH1 0x40 DUP3 ADD MLOAD PUSH1 0x2 DUP3 ADD SSTORE PUSH1 0x60 DUP3 ADD MLOAD PUSH1 0x3 DUP3 ADD SSTORE PUSH1 0x80 DUP3 ADD MLOAD DUP1 MLOAD PUSH2 0x62A SWAP2 PUSH1 0x4 DUP5 ADD SWAP2 PUSH1 0x20 SWAP1 SWAP2 ADD SWAP1 PUSH2 0x752 JUMP JUMPDEST POP PUSH1 0xA0 DUP3 ADD MLOAD DUP1 MLOAD PUSH2 0x646 SWAP2 PUSH1 0x5 DUP5 ADD SWAP2 PUSH1 0x20 SWAP1 SWAP2 ADD SWAP1 PUSH2 0x752 JUMP JUMPDEST POP PUSH1 0xC0 DUP3 ADD MLOAD DUP1 MLOAD PUSH2 0x662 SWAP2 PUSH1 0x6 DUP5 ADD SWAP2 PUSH1 0x20 SWAP1 SWAP2 ADD SWAP1 PUSH2 0x752 JUMP JUMPDEST POP PUSH1 0xE0 SWAP2 SWAP1 SWAP2 ADD MLOAD PUSH1 0x7 SWAP1 SWAP2 ADD DUP1 SLOAD PUSH1 0xFF NOT AND SWAP2 ISZERO ISZERO SWAP2 SWAP1 SWAP2 OR SWAP1 SSTORE POP POP POP POP POP POP POP POP JUMP JUMPDEST CALLER PUSH1 0x0 SWAP1 DUP2 MSTORE PUSH1 0x3 PUSH1 0x20 MSTORE PUSH1 0x40 DUP2 KECCAK256 DUP1 SLOAD DUP3 SWAP2 DUP3 SWAP2 DUP6 SWAP1 DUP2 LT PUSH2 0x6AD JUMPI PUSH2 0x6AD PUSH2 0xAC1 JUMP JUMPDEST PUSH1 0x0 SWAP2 DUP3 MSTORE PUSH1 0x20 DUP1 DUP4 KECCAK256 PUSH1 0x5 SWAP1 SWAP3 MUL SWAP1 SWAP2 ADD SLOAD CALLER DUP4 MSTORE PUSH1 0x3 SWAP1 SWAP2 MSTORE PUSH1 0x40 SWAP1 SWAP2 KECCAK256 DUP1 SLOAD DUP7 SWAP1 DUP2 LT PUSH2 0x6DF JUMPI PUSH2 0x6DF PUSH2 0xAC1 JUMP JUMPDEST SWAP1 PUSH1 0x0 MSTORE PUSH1 0x20 PUSH1 0x0 KECCAK256 SWAP1 PUSH1 0x5 MUL ADD PUSH1 0x1 ADD SLOAD PUSH1 0x3 PUSH1 0x0 CALLER PUSH1 0x1 PUSH1 0x1 PUSH1 0xA0 SHL SUB AND PUSH1 0x1 PUSH1 0x1 PUSH1 0xA0 SHL SUB AND DUP2 MSTORE PUSH1 0x20 ADD SWAP1 DUP2 MSTORE PUSH1 0x20 ADD PUSH1 0x0 KECCAK256 DUP7 DUP2 SLOAD DUP2 LT PUSH2 0x727 JUMPI PUSH2 0x727 PUSH2 0xAC1 JUMP JUMPDEST PUSH1 0x0 SWAP2 DUP3 MSTORE PUSH1 0x20 SWAP1 SWAP2 KECCAK256 PUSH1 0x2 PUSH1 0x5 SWAP1 SWAP3 MUL ADD ADD SLOAD SWAP2 SWAP5 POP SWAP3 POP PUSH1 0x1 PUSH1 0x1 PUSH1 0xA0 SHL SUB AND SWAP1 POP SWAP2 SWAP4 SWAP1 SWAP3 POP JUMP JUMPDEST DUP3 DUP1 SLOAD PUSH2 0x75E SWAP1 PUSH2 0xA86 JUMP JUMPDEST SWAP1 PUSH1 0x0 MSTORE PUSH1 0x20 PUSH1 0x0 KECCAK256 SWAP1 PUSH1 0x1F ADD PUSH1 0x20 SWAP1 DIV DUP2 ADD SWAP3 DUP3 PUSH2 0x780 JUMPI PUSH1 0x0 DUP6 SSTORE PUSH2 0x7C6 JUMP JUMPDEST DUP3 PUSH1 0x1F LT PUSH2 0x799 JUMPI DUP1 MLOAD PUSH1 0xFF NOT AND DUP4 DUP1 ADD OR DUP6 SSTORE PUSH2 0x7C6 JUMP JUMPDEST DUP3 DUP1 ADD PUSH1 0x1 ADD DUP6 SSTORE DUP3 ISZERO PUSH2 0x7C6 JUMPI SWAP2 DUP3 ADD JUMPDEST DUP3 DUP2 GT ISZERO PUSH2 0x7C6 JUMPI DUP3 MLOAD DUP3 SSTORE SWAP2 PUSH1 0x20 ADD SWAP2 SWAP1 PUSH1 0x1 ADD SWAP1 PUSH2 0x7AB JUMP JUMPDEST POP PUSH2 0x7D2 SWAP3 SWAP2 POP PUSH2 0x7D6 JUMP JUMPDEST POP SWAP1 JUMP JUMPDEST JUMPDEST DUP1 DUP3 GT ISZERO PUSH2 0x7D2 JUMPI PUSH1 0x0 DUP2 SSTORE PUSH1 0x1 ADD PUSH2 0x7D7 JUMP JUMPDEST PUSH1 0x0 DUP3 PUSH1 0x1F DUP4 ADD SLT PUSH2 0x7FC JUMPI PUSH1 0x0 DUP1 REVERT JUMPDEST DUP2 CALLDATALOAD PUSH8 0xFFFFFFFFFFFFFFFF DUP1 DUP3 GT ISZERO PUSH2 0x817 JUMPI PUSH2 0x817 PUSH2 0xAD7 JUMP JUMPDEST PUSH1 0x40 MLOAD PUSH1 0x1F DUP4 ADD PUSH1 0x1F NOT SWAP1 DUP2 AND PUSH1 0x3F ADD AND DUP2 ADD SWAP1 DUP3 DUP3 GT DUP2 DUP4 LT OR ISZERO PUSH2 0x83F JUMPI PUSH2 0x83F PUSH2 0xAD7 JUMP JUMPDEST DUP2 PUSH1 0x40 MSTORE DUP4 DUP2 MSTORE DUP7 PUSH1 0x20 DUP6 DUP9 ADD ADD GT ISZERO PUSH2 0x858 JUMPI PUSH1 0x0 DUP1 REVERT JUMPDEST DUP4 PUSH1 0x20 DUP8 ADD PUSH1 0x20 DUP4 ADD CALLDATACOPY PUSH1 0x0 PUSH1 0x20 DUP6 DUP4 ADD ADD MSTORE DUP1 SWAP5 POP POP POP POP POP SWAP3 SWAP2 POP POP JUMP JUMPDEST PUSH1 0x0 DUP1 PUSH1 0x40 DUP4 DUP6 SUB SLT ISZERO PUSH2 0x88B JUMPI PUSH1 0x0 DUP1 REVERT JUMPDEST DUP3 CALLDATALOAD PUSH8 0xFFFFFFFFFFFFFFFF DUP1 DUP3 GT ISZERO PUSH2 0x8A3 JUMPI PUSH1 0x0 DUP1 REVERT JUMPDEST PUSH2 0x8AF DUP7 DUP4 DUP8 ADD PUSH2 0x7EB JUMP JUMPDEST SWAP4 POP PUSH1 0x20 DUP6 ADD CALLDATALOAD SWAP2 POP DUP1 DUP3 GT ISZERO PUSH2 0x8C5 JUMPI PUSH1 0x0 DUP1 REVERT JUMPDEST POP PUSH2 0x8D2 DUP6 DUP3 DUP7 ADD PUSH2 0x7EB JUMP JUMPDEST SWAP2 POP POP SWAP3 POP SWAP3 SWAP1 POP JUMP JUMPDEST PUSH1 0x0 PUSH1 0x20 DUP3 DUP5 SUB SLT ISZERO PUSH2 0x8EE JUMPI PUSH1 0x0 DUP1 REVERT JUMPDEST POP CALLDATALOAD SWAP2 SWAP1 POP JUMP JUMPDEST PUSH1 0x0 DUP1 PUSH1 0x0 DUP1 PUSH1 0x0 DUP1 PUSH1 0x0 PUSH1 0xE0 DUP9 DUP11 SUB SLT ISZERO PUSH2 0x910 JUMPI PUSH1 0x0 DUP1 REVERT JUMPDEST DUP8 CALLDATALOAD SWAP7 POP PUSH1 0x20 DUP9 ADD CALLDATALOAD PUSH8 0xFFFFFFFFFFFFFFFF DUP1 DUP3 GT ISZERO PUSH2 0x92F JUMPI PUSH1 0x0 DUP1 REVERT JUMPDEST PUSH2 0x93B DUP12 DUP4 DUP13 ADD PUSH2 0x7EB JUMP JUMPDEST SWAP8 POP PUSH1 0x40 DUP11 ADD CALLDATALOAD SWAP7 POP PUSH1 0x60 DUP11 ADD CALLDATALOAD SWAP6 POP PUSH1 0x80 DUP11 ADD CALLDATALOAD SWAP2 POP DUP1 DUP3 GT ISZERO PUSH2 0x95F JUMPI PUSH1 0x0 DUP1 REVERT JUMPDEST PUSH2 0x96B DUP12 DUP4 DUP13 ADD PUSH2 0x7EB JUMP JUMPDEST SWAP5 POP PUSH1 0xA0 DUP11 ADD CALLDATALOAD SWAP2 POP DUP1 DUP3 GT ISZERO PUSH2 0x981 JUMPI PUSH1 0x0 DUP1 REVERT JUMPDEST PUSH2 0x98D DUP12 DUP4 DUP13 ADD PUSH2 0x7EB JUMP JUMPDEST SWAP4 POP PUSH1 0xC0 DUP11 ADD CALLDATALOAD SWAP2 POP DUP1 DUP3 GT ISZERO PUSH2 0x9A3 JUMPI PUSH1 0x0 DUP1 REVERT JUMPDEST POP PUSH2 0x9B0 DUP11 DUP3 DUP12 ADD PUSH2 0x7EB JUMP JUMPDEST SWAP2 POP POP SWAP3 SWAP6 SWAP9 SWAP2 SWAP5 SWAP8 POP SWAP3 SWAP6 POP JUMP JUMPDEST PUSH1 0x0 DUP2 MLOAD DUP1 DUP5 MSTORE PUSH1 0x0 JUMPDEST DUP2 DUP2 LT ISZERO PUSH2 0x9E5 JUMPI PUSH1 0x20 DUP2 DUP6 ADD DUP2 ADD MLOAD DUP7 DUP4 ADD DUP3 ADD MSTORE ADD PUSH2 0x9C9 JUMP JUMPDEST DUP2 DUP2 GT ISZERO PUSH2 0x9F7 JUMPI PUSH1 0x0 PUSH1 0x20 DUP4 DUP8 ADD ADD MSTORE JUMPDEST POP PUSH1 0x1F ADD PUSH1 0x1F NOT AND SWAP3 SWAP1 SWAP3 ADD PUSH1 0x20 ADD SWAP3 SWAP2 POP POP JUMP JUMPDEST PUSH1 0x0 PUSH2 0x100 DUP11 DUP4 MSTORE DUP1 PUSH1 0x20 DUP5 ADD MSTORE PUSH2 0xA26 DUP2 DUP5 ADD DUP12 PUSH2 0x9BF JUMP JUMPDEST SWAP1 POP DUP9 PUSH1 0x40 DUP5 ADD MSTORE DUP8 PUSH1 0x60 DUP5 ADD MSTORE DUP3 DUP2 SUB PUSH1 0x80 DUP5 ADD MSTORE PUSH2 0xA46 DUP2 DUP9 PUSH2 0x9BF JUMP JUMPDEST SWAP1 POP DUP3 DUP2 SUB PUSH1 0xA0 DUP5 ADD MSTORE PUSH2 0xA5A DUP2 DUP8 PUSH2 0x9BF JUMP JUMPDEST SWAP1 POP DUP3 DUP2 SUB PUSH1 0xC0 DUP5 ADD MSTORE PUSH2 0xA6E DUP2 DUP7 PUSH2 0x9BF JUMP JUMPDEST SWAP2 POP POP DUP3 ISZERO ISZERO PUSH1 0xE0 DUP4 ADD MSTORE SWAP10 SWAP9 POP POP POP POP POP POP POP POP POP JUMP JUMPDEST PUSH1 0x1 DUP2 DUP2 SHR SWAP1 DUP3 AND DUP1 PUSH2 0xA9A JUMPI PUSH1 0x7F DUP3 AND SWAP2 POP JUMPDEST PUSH1 0x20 DUP3 LT DUP2 EQ ISZERO PUSH2 0xABB JUMPI PUSH4 0x4E487B71 PUSH1 0xE0 SHL PUSH1 0x0 MSTORE PUSH1 0x22 PUSH1 0x4 MSTORE PUSH1 0x24 PUSH1 0x0 REVERT JUMPDEST POP SWAP2 SWAP1 POP JUMP JUMPDEST PUSH4 0x4E487B71 PUSH1 0xE0 SHL PUSH1 0x0 MSTORE PUSH1 0x32 PUSH1 0x4 MSTORE PUSH1 0x24 PUSH1 0x0 REVERT JUMPDEST PUSH4 0x4E487B71 PUSH1 0xE0 SHL PUSH1 0x0 MSTORE PUSH1 0x41 PUSH1 0x4 MSTORE PUSH1 0x24 PUSH1 0x0 REVERT INVALID LOG2 PUSH5 0x6970667358 0x22 SLT KECCAK256 CALLDATASIZE 0xAD 0x22 DUP9 MSTORE8 0xAF RETURNDATASIZE 0x21 CREATE 0xAC NOT EXP DUP6 0xA5 GT CREATE CREATE2 GASPRICE 0x5C RETURN 0x2E SWAP11 RETURN 0xEE 0x49 SHR 0x23 0xC4 0xB5 CALLCODE PUSH18 0x4B64736F6C63430008070033000000000000 "
        },
        "methodIdentifiers": {
          "addProduct(uint256,string,uint256,uint256,string,string,string)": "99f33e67",
          "createAccount(string,string)": "19289287",
          "getOrdersPlaced(uint256)": "a3061742",
          "productList(uint256)": "528c87d2"
        }
      }
    }
  }
}