{
  "_format": "hh-sol-artifact-1",
  "contractName": "EcellShop",
  "sourceName": "contracts/EcellShop.sol",
  "abi": [
    {
      "inputs": [],
      "stateMutability": "nonpayable",
      "type": "constructor"
    },
    {
      "inputs": [
        {
          "internalType": "uint256",
          "name": "productID",
          "type": "uint256"
        },
        {
          "internalType": "string",
          "name": "_name",
          "type": "string"
        },
        {
          "internalType": "uint256",
          "name": "_price",
          "type": "uint256"
        },
        {
          "internalType": "uint256",
          "name": "_quantity",
          "type": "uint256"
        },
        {
          "internalType": "string",
          "name": "_description",
          "type": "string"
        },
        {
          "internalType": "string",
          "name": "_image",
          "type": "string"
        },
        {
          "internalType": "string",
          "name": "_category",
          "type": "string"
        }
      ],
      "name": "addProduct",
      "outputs": [],
      "stateMutability": "nonpayable",
      "type": "function"
    },
    {
      "inputs": [
        {
          "internalType": "string",
          "name": "_name",
          "type": "string"
        },
        {
          "internalType": "string",
          "name": "_email",
          "type": "string"
        }
      ],
      "name": "createAccount",
      "outputs": [],
      "stateMutability": "nonpayable",
      "type": "function"
    },
    {
      "inputs": [
        {
          "internalType": "uint256",
          "name": "_index",
          "type": "uint256"
        }
      ],
      "name": "getOrdersPlaced",
      "outputs": [
        {
          "internalType": "uint256",
          "name": "",
          "type": "uint256"
        },
        {
          "internalType": "uint256",
          "name": "",
          "type": "uint256"
        },
        {
          "internalType": "address",
          "name": "",
          "type": "address"
        }
      ],
      "stateMutability": "view",
      "type": "function"
    },
    {
      "inputs": [
        {
          "internalType": "uint256",
          "name": "",
          "type": "uint256"
        }
      ],
      "name": "productList",
      "outputs": [
        {
          "internalType": "uint256",
          "name": "id",
          "type": "uint256"
        },
        {
          "internalType": "string",
          "name": "name",
          "type": "string"
        },
        {
          "internalType": "uint256",
          "name": "price",
          "type": "uint256"
        },
        {
          "internalType": "uint256",
          "name": "quantity",
          "type": "uint256"
        },
        {
          "internalType": "string",
          "name": "description",
          "type": "string"
        },
        {
          "internalType": "string",
          "name": "image",
          "type": "string"
        },
        {
          "internalType": "string",
          "name": "category",
          "type": "string"
        },
        {
          "internalType": "bool",
          "name": "isActive",
          "type": "bool"
        }
      ],
      "stateMutability": "view",
      "type": "function"
    }
  ],
  "bytecode": "0x608060405234801561001057600080fd5b50600080546001600160a01b03191633179055610b23806100326000396000f3fe608060405234801561001057600080fd5b506004361061004c5760003560e01c80631928928714610051578063528c87d21461006657806399f33e6714610096578063a3061742146100a9575b600080fd5b61006461005f366004610878565b6100e0565b005b6100796100743660046108dc565b610138565b60405161008d989796959493929190610a0c565b60405180910390f35b6100646100a43660046108f5565b6103af565b6100bc6100b73660046108dc565b610688565b6040805193845260208401929092526001600160a01b03169082015260600161008d565b6040805180820182528381526020808201849052336000908152600482529290922081518051929384936101179284920190610752565b5060208281015180516101309260018501920190610752565b505050505050565b6002818154811061014857600080fd5b6000918252602090912060089091020180546001820180549193509061016d90610a86565b80601f016020809104026020016040519081016040528092919081815260200182805461019990610a86565b80156101e65780601f106101bb576101008083540402835291602001916101e6565b820191906000526020600020905b8154815290600101906020018083116101c957829003601f168201915b50505050509080600201549080600301549080600401805461020790610a86565b80601f016020809104026020016040519081016040528092919081815260200182805461023390610a86565b80156102805780601f1061025557610100808354040283529160200191610280565b820191906000526020600020905b81548152906001019060200180831161026357829003601f168201915b50505050509080600501805461029590610a86565b80601f01602080910402602001604051908101604052809291908181526020018280546102c190610a86565b801561030e5780601f106102e35761010080835404028352916020019161030e565b820191906000526020600020905b8154815290600101906020018083116102f157829003601f168201915b50505050509080600601805461032390610a86565b80601f016020809104026020016040519081016040528092919081815260200182805461034f90610a86565b801561039c5780601f106103715761010080835404028352916020019161039c565b820191906000526020600020905b81548152906001019060200180831161037f57829003601f168201915b5050506007909301549192505060ff1688565b60008781526001602052604090206007015460ff16156103ce57600080fd5b60408051610100810182528881526020808201898152928201889052606082018790526080820186905260a0820185905260c08201849052600160e0830181905260028054918201815560005282517f405787fa12a823e0f2b7631cc41b3ba8828b3321ca811111fa75cd3aa3bb5ace600890920291820190815593518051939485949093610481937f405787fa12a823e0f2b7631cc41b3ba8828b3321ca811111fa75cd3aa3bb5acf01920190610752565b506040820151600282015560608201516003820155608082015180516104b1916004840191602090910190610752565b5060a082015180516104cd916005840191602090910190610752565b5060c082015180516104e9916006840191602090910190610752565b5060e091909101516007909101805460ff191691151591909117905560008881526001602081815260409092208a8155895161052d939190920191908a0190610752565b5060008881526001602090815260409091206002810188905560038101879055855161056192600490920191870190610752565b506000888152600160209081526040909120845161058792600590920191860190610752565b50600088815260016020908152604090912083516105ad92600690920191850190610752565b508060028260000151815481106105c6576105c6610ac1565b90600052602060002090600802016000820151816000015560208201518160010190805190602001906105fa929190610752565b5060408201516002820155606082015160038201556080820151805161062a916004840191602090910190610752565b5060a08201518051610646916005840191602090910190610752565b5060c08201518051610662916006840191602090910190610752565b5060e091909101516007909101805460ff19169115159190911790555050505050505050565b336000908152600360205260408120805482918291859081106106ad576106ad610ac1565b60009182526020808320600590920290910154338352600390915260409091208054869081106106df576106df610ac1565b90600052602060002090600502016001015460036000336001600160a01b03166001600160a01b03168152602001908152602001600020868154811061072757610727610ac1565b600091825260209091206002600590920201015491945092506001600160a01b031690509193909250565b82805461075e90610a86565b90600052602060002090601f01602090048101928261078057600085556107c6565b82601f1061079957805160ff19168380011785556107c6565b828001600101855582156107c6579182015b828111156107c65782518255916020019190600101906107ab565b506107d29291506107d6565b5090565b5b808211156107d257600081556001016107d7565b600082601f8301126107fc57600080fd5b813567ffffffffffffffff8082111561081757610817610ad7565b604051601f8301601f19908116603f0116810190828211818310171561083f5761083f610ad7565b8160405283815286602085880101111561085857600080fd5b836020870160208301376000602085830101528094505050505092915050565b6000806040838503121561088b57600080fd5b823567ffffffffffffffff808211156108a357600080fd5b6108af868387016107eb565b935060208501359150808211156108c557600080fd5b506108d2858286016107eb565b9150509250929050565b6000602082840312156108ee57600080fd5b5035919050565b600080600080600080600060e0888a03121561091057600080fd5b87359650602088013567ffffffffffffffff8082111561092f57600080fd5b61093b8b838c016107eb565b975060408a0135965060608a0135955060808a013591508082111561095f57600080fd5b61096b8b838c016107eb565b945060a08a013591508082111561098157600080fd5b61098d8b838c016107eb565b935060c08a01359150808211156109a357600080fd5b506109b08a828b016107eb565b91505092959891949750929550565b6000815180845260005b818110156109e5576020818501810151868301820152016109c9565b818111156109f7576000602083870101525b50601f01601f19169290920160200192915050565b60006101008a8352806020840152610a268184018b6109bf565b90508860408401528760608401528281036080840152610a4681886109bf565b905082810360a0840152610a5a81876109bf565b905082810360c0840152610a6e81866109bf565b91505082151560e08301529998505050505050505050565b600181811c90821680610a9a57607f821691505b60208210811415610abb57634e487b7160e01b600052602260045260246000fd5b50919050565b634e487b7160e01b600052603260045260246000fd5b634e487b7160e01b600052604160045260246000fdfea264697066735822122036ad228853af3d21f0ac190a85a511f0f53a5cf32e9af3ee491c23c4b5f2714b64736f6c63430008070033",
  "linkReferences": {},
  "deployedLinkReferences": {}
}