{
  "_format": "hh-sol-artifact-1",
  "contractName": "EcellToken",
  "sourceName": "contracts/EcellToken.sol",
  "abi": [
    {
      "inputs": [],
      "stateMutability": "nonpayable",
      "type": "constructor"
    },
    {
      "anonymous": false,
      "inputs": [
        {
          "indexed": true,
          "internalType": "address",
          "name": "owner",
          "type": "address"
        },
        {
          "indexed": true,
          "internalType": "address",
          "name": "spender",
          "type": "address"
        },
        {
          "indexed": false,
          "internalType": "uint256",
          "name": "value",
          "type": "uint256"
        }
      ],
      "name": "Approval",
      "type": "event"
    },
    {
      "anonymous": false,
      "inputs": [
        {
          "indexed": true,
          "internalType": "address",
          "name": "previousOwner",
          "type": "address"
        },
        {
          "indexed": true,
          "internalType": "address",
          "name": "newOwner",
          "type": "address"
        }
      ],
      "name": "OwnershipTransferred",
      "type": "event"
    },
    {
      "anonymous": false,
      "inputs": [
        {
          "indexed": true,
          "internalType": "address",
          "name": "from",
          "type": "address"
        },
        {
          "indexed": true,
          "internalType": "address",
          "name": "to",
          "type": "address"
        },
        {
          "indexed": false,
          "internalType": "uint256",
          "name": "value",
          "type": "uint256"
        }
      ],
      "name": "Transfer",
      "type": "event"
    },
    {
      "inputs": [
        {
          "internalType": "address",
          "name": "owner",
          "type": "address"
        },
        {
          "internalType": "address",
          "name": "spender",
          "type": "address"
        }
      ],
      "name": "allowance",
      "outputs": [
        {
          "internalType": "uint256",
          "name": "",
          "type": "uint256"
        }
      ],
      "stateMutability": "view",
      "type": "function"
    },
    {
      "inputs": [
        {
          "internalType": "address",
          "name": "spender",
          "type": "address"
        },
        {
          "internalType": "uint256",
          "name": "amount",
          "type": "uint256"
        }
      ],
      "name": "approve",
      "outputs": [
        {
          "internalType": "bool",
          "name": "",
          "type": "bool"
        }
      ],
      "stateMutability": "nonpayable",
      "type": "function"
    },
    {
      "inputs": [
        {
          "internalType": "address",
          "name": "account",
          "type": "address"
        }
      ],
      "name": "balanceOf",
      "outputs": [
        {
          "internalType": "uint256",
          "name": "",
          "type": "uint256"
        }
      ],
      "stateMutability": "view",
      "type": "function"
    },
    {
      "inputs": [],
      "name": "decimals",
      "outputs": [
        {
          "internalType": "uint8",
          "name": "",
          "type": "uint8"
        }
      ],
      "stateMutability": "view",
      "type": "function"
    },
    {
      "inputs": [
        {
          "internalType": "address",
          "name": "spender",
          "type": "address"
        },
        {
          "internalType": "uint256",
          "name": "subtractedValue",
          "type": "uint256"
        }
      ],
      "name": "decreaseAllowance",
      "outputs": [
        {
          "internalType": "bool",
          "name": "",
          "type": "bool"
        }
      ],
      "stateMutability": "nonpayable",
      "type": "function"
    },
    {
      "inputs": [
        {
          "internalType": "uint256",
          "name": "quantity",
          "type": "uint256"
        }
      ],
      "name": "getMoreTokens",
      "outputs": [],
      "stateMutability": "nonpayable",
      "type": "function"
    },
    {
      "inputs": [],
      "name": "getSupply",
      "outputs": [
        {
          "internalType": "uint256",
          "name": "",
          "type": "uint256"
        }
      ],
      "stateMutability": "view",
      "type": "function"
    },
    {
      "inputs": [
        {
          "internalType": "address",
          "name": "spender",
          "type": "address"
        },
        {
          "internalType": "uint256",
          "name": "addedValue",
          "type": "uint256"
        }
      ],
      "name": "increaseAllowance",
      "outputs": [
        {
          "internalType": "bool",
          "name": "",
          "type": "bool"
        }
      ],
      "stateMutability": "nonpayable",
      "type": "function"
    },
    {
      "inputs": [],
      "name": "name",
      "outputs": [
        {
          "internalType": "string",
          "name": "",
          "type": "string"
        }
      ],
      "stateMutability": "view",
      "type": "function"
    },
    {
      "inputs": [],
      "name": "owner",
      "outputs": [
        {
          "internalType": "address",
          "name": "",
          "type": "address"
        }
      ],
      "stateMutability": "view",
      "type": "function"
    },
    {
      "inputs": [],
      "name": "renounceOwnership",
      "outputs": [],
      "stateMutability": "nonpayable",
      "type": "function"
    },
    {
      "inputs": [],
      "name": "symbol",
      "outputs": [
        {
          "internalType": "string",
          "name": "",
          "type": "string"
        }
      ],
      "stateMutability": "view",
      "type": "function"
    },
    {
      "inputs": [],
      "name": "totalSupply",
      "outputs": [
        {
          "internalType": "uint256",
          "name": "",
          "type": "uint256"
        }
      ],
      "stateMutability": "view",
      "type": "function"
    },
    {
      "inputs": [
        {
          "internalType": "address",
          "name": "to",
          "type": "address"
        },
        {
          "internalType": "uint256",
          "name": "amount",
          "type": "uint256"
        }
      ],
      "name": "transfer",
      "outputs": [
        {
          "internalType": "bool",
          "name": "",
          "type": "bool"
        }
      ],
      "stateMutability": "nonpayable",
      "type": "function"
    },
    {
      "inputs": [
        {
          "internalType": "address",
          "name": "from",
          "type": "address"
        },
        {
          "internalType": "address",
          "name": "to",
          "type": "address"
        },
        {
          "internalType": "uint256",
          "name": "amount",
          "type": "uint256"
        }
      ],
      "name": "transferFrom",
      "outputs": [
        {
          "internalType": "bool",
          "name": "",
          "type": "bool"
        }
      ],
      "stateMutability": "nonpayable",
      "type": "function"
    },
    {
      "inputs": [
        {
          "internalType": "address",
          "name": "newOwner",
          "type": "address"
        }
      ],
      "name": "transferOwnership",
      "outputs": [],
      "stateMutability": "nonpayable",
      "type": "function"
    }
  ],
  "bytecode": "0x608060405260006006553480156200001657600080fd5b50604080518082018252600a81526922b1b2b6362a37b5b2b760b11b6020808301918252835180850190945260058452641150d1531360da1b908401528151919291620000669160039162000207565b5080516200007c90600490602084019062000207565b5050506200009962000093620000c960201b60201c565b620000cd565b620000a7336127106200011f565b61271060066000828254620000bd9190620002ad565b90915550620003119050565b3390565b600580546001600160a01b038381166001600160a01b0319831681179093556040519116919082907f8be0079c531659141344cd1fd0a4f28419497f9722a3daafe3b4186f6b6457e090600090a35050565b6001600160a01b0382166200017a5760405162461bcd60e51b815260206004820152601f60248201527f45524332303a206d696e7420746f20746865207a65726f206164647265737300604482015260640160405180910390fd5b80600260008282546200018e9190620002ad565b90915550506001600160a01b03821660009081526020819052604081208054839290620001bd908490620002ad565b90915550506040518181526001600160a01b038316906000907fddf252ad1be2c89b69c2b068fc378daa952ba7f163c4a11628f55a4df523b3ef9060200160405180910390a35050565b8280546200021590620002d4565b90600052602060002090601f01602090048101928262000239576000855562000284565b82601f106200025457805160ff191683800117855562000284565b8280016001018555821562000284579182015b828111156200028457825182559160200191906001019062000267565b506200029292915062000296565b5090565b5b8082111562000292576000815560010162000297565b60008219821115620002cf57634e487b7160e01b600052601160045260246000fd5b500190565b600181811c90821680620002e957607f821691505b602082108114156200030b57634e487b7160e01b600052602260045260246000fd5b50919050565b610c1a80620003216000396000f3fe608060405234801561001057600080fd5b50600436106101005760003560e01c806370f38c2711610097578063a457c2d711610066578063a457c2d7146101fe578063a9059cbb14610211578063dd62ed3e14610224578063f2fde38b1461025d57600080fd5b806370f38c27146101be578063715018a6146101d35780638da5cb5b146101db57806395d89b41146101f657600080fd5b8063313ce567116100d3578063313ce5671461016b578063395093511461017a5780636c9c2faf1461018d57806370a082311461019557600080fd5b806306fdde0314610105578063095ea7b31461012357806318160ddd1461014657806323b872dd14610158575b600080fd5b61010d610270565b60405161011a9190610af9565b60405180910390f35b610136610131366004610ab6565b610302565b604051901515815260200161011a565b6002545b60405190815260200161011a565b610136610166366004610a7a565b61031a565b6040516012815260200161011a565b610136610188366004610ab6565b61033e565b60065461014a565b61014a6101a3366004610a25565b6001600160a01b031660009081526020819052604090205490565b6101d16101cc366004610ae0565b61037d565b005b6101d16103d4565b6005546040516001600160a01b03909116815260200161011a565b61010d61040a565b61013661020c366004610ab6565b610419565b61013661021f366004610ab6565b6104ab565b61014a610232366004610a47565b6001600160a01b03918216600090815260016020908152604080832093909416825291909152205490565b6101d161026b366004610a25565b6104b9565b60606003805461027f90610ba9565b80601f01602080910402602001604051908101604052809291908181526020018280546102ab90610ba9565b80156102f85780601f106102cd576101008083540402835291602001916102f8565b820191906000526020600020905b8154815290600101906020018083116102db57829003601f168201915b5050505050905090565b600033610310818585610554565b5060019392505050565b600033610328858285610678565b61033385858561070a565b506001949350505050565b3360008181526001602090815260408083206001600160a01b03871684529091528120549091906103109082908690610378908790610b83565b610554565b6005546001600160a01b031633146103b05760405162461bcd60e51b81526004016103a790610b4e565b60405180910390fd5b6103ba33826108d8565b80600660008282546103cc9190610b83565b909155505050565b6005546001600160a01b031633146103fe5760405162461bcd60e51b81526004016103a790610b4e565b61040860006109b7565b565b60606004805461027f90610ba9565b3360008181526001602090815260408083206001600160a01b03871684529091528120549091908381101561049e5760405162461bcd60e51b815260206004820152602560248201527f45524332303a2064656372656173656420616c6c6f77616e63652062656c6f77604482015264207a65726f60d81b60648201526084016103a7565b6103338286868403610554565b60003361031081858561070a565b6005546001600160a01b031633146104e35760405162461bcd60e51b81526004016103a790610b4e565b6001600160a01b0381166105485760405162461bcd60e51b815260206004820152602660248201527f4f776e61626c653a206e6577206f776e657220697320746865207a65726f206160448201526564647265737360d01b60648201526084016103a7565b610551816109b7565b50565b6001600160a01b0383166105b65760405162461bcd60e51b8152602060048201526024808201527f45524332303a20617070726f76652066726f6d20746865207a65726f206164646044820152637265737360e01b60648201526084016103a7565b6001600160a01b0382166106175760405162461bcd60e51b815260206004820152602260248201527f45524332303a20617070726f766520746f20746865207a65726f206164647265604482015261737360f01b60648201526084016103a7565b6001600160a01b0383811660008181526001602090815260408083209487168084529482529182902085905590518481527f8c5be1e5ebec7d5bd14f71427d1e84f3dd0314c0f7b2291e5b200ac8c7c3b925910160405180910390a3505050565b6001600160a01b03838116600090815260016020908152604080832093861683529290522054600019811461070457818110156106f75760405162461bcd60e51b815260206004820152601d60248201527f45524332303a20696e73756666696369656e7420616c6c6f77616e636500000060448201526064016103a7565b6107048484848403610554565b50505050565b6001600160a01b03831661076e5760405162461bcd60e51b815260206004820152602560248201527f45524332303a207472616e736665722066726f6d20746865207a65726f206164604482015264647265737360d81b60648201526084016103a7565b6001600160a01b0382166107d05760405162461bcd60e51b815260206004820152602360248201527f45524332303a207472616e7366657220746f20746865207a65726f206164647260448201526265737360e81b60648201526084016103a7565b6001600160a01b038316600090815260208190526040902054818110156108485760405162461bcd60e51b815260206004820152602660248201527f45524332303a207472616e7366657220616d6f756e7420657863656564732062604482015265616c616e636560d01b60648201526084016103a7565b6001600160a01b0380851660009081526020819052604080822085850390559185168152908120805484929061087f908490610b83565b92505081905550826001600160a01b0316846001600160a01b03167fddf252ad1be2c89b69c2b068fc378daa952ba7f163c4a11628f55a4df523b3ef846040516108cb91815260200190565b60405180910390a3610704565b6001600160a01b03821661092e5760405162461bcd60e51b815260206004820152601f60248201527f45524332303a206d696e7420746f20746865207a65726f20616464726573730060448201526064016103a7565b80600260008282546109409190610b83565b90915550506001600160a01b0382166000908152602081905260408120805483929061096d908490610b83565b90915550506040518181526001600160a01b038316906000907fddf252ad1be2c89b69c2b068fc378daa952ba7f163c4a11628f55a4df523b3ef9060200160405180910390a35050565b600580546001600160a01b038381166001600160a01b0319831681179093556040519116919082907f8be0079c531659141344cd1fd0a4f28419497f9722a3daafe3b4186f6b6457e090600090a35050565b80356001600160a01b0381168114610a2057600080fd5b919050565b600060208284031215610a3757600080fd5b610a4082610a09565b9392505050565b60008060408385031215610a5a57600080fd5b610a6383610a09565b9150610a7160208401610a09565b90509250929050565b600080600060608486031215610a8f57600080fd5b610a9884610a09565b9250610aa660208501610a09565b9150604084013590509250925092565b60008060408385031215610ac957600080fd5b610ad283610a09565b946020939093013593505050565b600060208284031215610af257600080fd5b5035919050565b600060208083528351808285015260005b81811015610b2657858101830151858201604001528201610b0a565b81811115610b38576000604083870101525b50601f01601f1916929092016040019392505050565b6020808252818101527f4f776e61626c653a2063616c6c6572206973206e6f7420746865206f776e6572604082015260600190565b60008219821115610ba457634e487b7160e01b600052601160045260246000fd5b500190565b600181811c90821680610bbd57607f821691505b60208210811415610bde57634e487b7160e01b600052602260045260246000fd5b5091905056fea264697066735822122037e05d83687f017a679a2ed1a1c60408180fe63cbc58f7deb673c957e1ebc6b964736f6c63430008070033",
  "linkReferences": {},
  "deployedLinkReferences": {}
}