{
  "_format": "hh-sol-artifact-1",
  "contractName": "EcellToken",
  "sourceName": "contracts/EcellToken.sol",
  "abi": [
    {
      "inputs": [],
      "stateMutability": "nonpayable",
      "type": "constructor"
    },
    {
      "anonymous": false,
      "inputs": [
        {
          "indexed": true,
          "internalType": "address",
          "name": "owner",
          "type": "address"
        },
        {
          "indexed": true,
          "internalType": "address",
          "name": "spender",
          "type": "address"
        },
        {
          "indexed": false,
          "internalType": "uint256",
          "name": "value",
          "type": "uint256"
        }
      ],
      "name": "Approval",
      "type": "event"
    },
    {
      "anonymous": false,
      "inputs": [
        {
          "indexed": true,
          "internalType": "address",
          "name": "previousOwner",
          "type": "address"
        },
        {
          "indexed": true,
          "internalType": "address",
          "name": "newOwner",
          "type": "address"
        }
      ],
      "name": "OwnershipTransferred",
      "type": "event"
    },
    {
      "anonymous": false,
      "inputs": [
        {
          "indexed": true,
          "internalType": "address",
          "name": "from",
          "type": "address"
        },
        {
          "indexed": true,
          "internalType": "address",
          "name": "to",
          "type": "address"
        },
        {
          "indexed": false,
          "internalType": "uint256",
          "name": "value",
          "type": "uint256"
        }
      ],
      "name": "Transfer",
      "type": "event"
    },
    {
      "inputs": [
        {
          "internalType": "address",
          "name": "owner",
          "type": "address"
        },
        {
          "internalType": "address",
          "name": "spender",
          "type": "address"
        }
      ],
      "name": "allowance",
      "outputs": [
        {
          "internalType": "uint256",
          "name": "",
          "type": "uint256"
        }
      ],
      "stateMutability": "view",
      "type": "function"
    },
    {
      "inputs": [
        {
          "internalType": "address",
          "name": "spender",
          "type": "address"
        },
        {
          "internalType": "uint256",
          "name": "amount",
          "type": "uint256"
        }
      ],
      "name": "approve",
      "outputs": [
        {
          "internalType": "bool",
          "name": "",
          "type": "bool"
        }
      ],
      "stateMutability": "nonpayable",
      "type": "function"
    },
    {
      "inputs": [
        {
          "internalType": "address",
          "name": "account",
          "type": "address"
        }
      ],
      "name": "balanceOf",
      "outputs": [
        {
          "internalType": "uint256",
          "name": "",
          "type": "uint256"
        }
      ],
      "stateMutability": "view",
      "type": "function"
    },
    {
      "inputs": [],
      "name": "decimals",
      "outputs": [
        {
          "internalType": "uint8",
          "name": "",
          "type": "uint8"
        }
      ],
      "stateMutability": "view",
      "type": "function"
    },
    {
      "inputs": [
        {
          "internalType": "address",
          "name": "spender",
          "type": "address"
        },
        {
          "internalType": "uint256",
          "name": "subtractedValue",
          "type": "uint256"
        }
      ],
      "name": "decreaseAllowance",
      "outputs": [
        {
          "internalType": "bool",
          "name": "",
          "type": "bool"
        }
      ],
      "stateMutability": "nonpayable",
      "type": "function"
    },
    {
      "inputs": [
        {
          "internalType": "uint256",
          "name": "quantity",
          "type": "uint256"
        }
      ],
      "name": "getMoreTokens",
      "outputs": [],
      "stateMutability": "nonpayable",
      "type": "function"
    },
    {
      "inputs": [
        {
          "internalType": "address",
          "name": "spender",
          "type": "address"
        },
        {
          "internalType": "uint256",
          "name": "addedValue",
          "type": "uint256"
        }
      ],
      "name": "increaseAllowance",
      "outputs": [
        {
          "internalType": "bool",
          "name": "",
          "type": "bool"
        }
      ],
      "stateMutability": "nonpayable",
      "type": "function"
    },
    {
      "inputs": [],
      "name": "name",
      "outputs": [
        {
          "internalType": "string",
          "name": "",
          "type": "string"
        }
      ],
      "stateMutability": "view",
      "type": "function"
    },
    {
      "inputs": [],
      "name": "owner",
      "outputs": [
        {
          "internalType": "address",
          "name": "",
          "type": "address"
        }
      ],
      "stateMutability": "view",
      "type": "function"
    },
    {
      "inputs": [],
      "name": "renounceOwnership",
      "outputs": [],
      "stateMutability": "nonpayable",
      "type": "function"
    },
    {
      "inputs": [],
      "name": "symbol",
      "outputs": [
        {
          "internalType": "string",
          "name": "",
          "type": "string"
        }
      ],
      "stateMutability": "view",
      "type": "function"
    },
    {
      "inputs": [],
      "name": "totalSupply",
      "outputs": [
        {
          "internalType": "uint256",
          "name": "",
          "type": "uint256"
        }
      ],
      "stateMutability": "view",
      "type": "function"
    },
    {
      "inputs": [
        {
          "internalType": "address",
          "name": "to",
          "type": "address"
        },
        {
          "internalType": "uint256",
          "name": "amount",
          "type": "uint256"
        }
      ],
      "name": "transfer",
      "outputs": [
        {
          "internalType": "bool",
          "name": "",
          "type": "bool"
        }
      ],
      "stateMutability": "nonpayable",
      "type": "function"
    },
    {
      "inputs": [
        {
          "internalType": "address",
          "name": "from",
          "type": "address"
        },
        {
          "internalType": "address",
          "name": "to",
          "type": "address"
        },
        {
          "internalType": "uint256",
          "name": "amount",
          "type": "uint256"
        }
      ],
      "name": "transferFrom",
      "outputs": [
        {
          "internalType": "bool",
          "name": "",
          "type": "bool"
        }
      ],
      "stateMutability": "nonpayable",
      "type": "function"
    },
    {
      "inputs": [
        {
          "internalType": "address",
          "name": "newOwner",
          "type": "address"
        }
      ],
      "name": "transferOwnership",
      "outputs": [],
      "stateMutability": "nonpayable",
      "type": "function"
    }
  ],
  "bytecode": "0x60806040523480156200001157600080fd5b506040518060400160405280600a81526020017f4563656c6c546f6b656e000000000000000000000000000000000000000000008152506040518060400160405280600581526020017f4543454c4c00000000000000000000000000000000000000000000000000000081525081600390805190602001906200009692919062000373565b508060049080519060200190620000af92919062000373565b505050620000d2620000c66200011960201b60201c565b6200012160201b60201c565b6200011333620000e7620001e760201b60201c565b60ff16600a620000f8919062000563565b612710620001079190620006a0565b620001f060201b60201c565b620007d5565b600033905090565b6000600560009054906101000a900473ffffffffffffffffffffffffffffffffffffffff16905081600560006101000a81548173ffffffffffffffffffffffffffffffffffffffff021916908373ffffffffffffffffffffffffffffffffffffffff1602179055508173ffffffffffffffffffffffffffffffffffffffff168173ffffffffffffffffffffffffffffffffffffffff167f8be0079c531659141344cd1fd0a4f28419497f9722a3daafe3b4186f6b6457e060405160405180910390a35050565b60006012905090565b600073ffffffffffffffffffffffffffffffffffffffff168273ffffffffffffffffffffffffffffffffffffffff16141562000263576040517f08c379a00000000000000000000000000000000000000000000000000000000081526004016200025a906200045b565b60405180910390fd5b62000277600083836200036960201b60201c565b80600260008282546200028b9190620004ab565b92505081905550806000808473ffffffffffffffffffffffffffffffffffffffff1673ffffffffffffffffffffffffffffffffffffffff1681526020019081526020016000206000828254620002e29190620004ab565b925050819055508173ffffffffffffffffffffffffffffffffffffffff16600073ffffffffffffffffffffffffffffffffffffffff167fddf252ad1be2c89b69c2b068fc378daa952ba7f163c4a11628f55a4df523b3ef836040516200034991906200047d565b60405180910390a362000365600083836200036e60201b60201c565b5050565b505050565b505050565b82805462000381906200070b565b90600052602060002090601f016020900481019282620003a55760008555620003f1565b82601f10620003c057805160ff1916838001178555620003f1565b82800160010185558215620003f1579182015b82811115620003f0578251825591602001919060010190620003d3565b5b50905062000400919062000404565b5090565b5b808211156200041f57600081600090555060010162000405565b5090565b600062000432601f836200049a565b91506200043f82620007ac565b602082019050919050565b620004558162000701565b82525050565b60006020820190508181036000830152620004768162000423565b9050919050565b60006020820190506200049460008301846200044a565b92915050565b600082825260208201905092915050565b6000620004b88262000701565b9150620004c58362000701565b9250827fffffffffffffffffffffffffffffffffffffffffffffffffffffffffffffffff03821115620004fd57620004fc62000741565b5b828201905092915050565b6000808291508390505b60018511156200055a5780860481111562000532576200053162000741565b5b6001851615620005425780820291505b808102905062000552856200079f565b945062000512565b94509492505050565b6000620005708262000701565b91506200057d8362000701565b9250620005ac7fffffffffffffffffffffffffffffffffffffffffffffffffffffffffffffffff8484620005b4565b905092915050565b600082620005c6576001905062000699565b81620005d6576000905062000699565b8160018114620005ef5760028114620005fa5762000630565b600191505062000699565b60ff8411156200060f576200060e62000741565b5b8360020a91508482111562000629576200062862000741565b5b5062000699565b5060208310610133831016604e8410600b84101617156200066a5782820a90508381111562000664576200066362000741565b5b62000699565b62000679848484600162000508565b9250905081840481111562000693576200069262000741565b5b81810290505b9392505050565b6000620006ad8262000701565b9150620006ba8362000701565b9250817fffffffffffffffffffffffffffffffffffffffffffffffffffffffffffffffff0483118215151615620006f657620006f562000741565b5b828202905092915050565b6000819050919050565b600060028204905060018216806200072457607f821691505b602082108114156200073b576200073a62000770565b5b50919050565b7f4e487b7100000000000000000000000000000000000000000000000000000000600052601160045260246000fd5b7f4e487b7100000000000000000000000000000000000000000000000000000000600052602260045260246000fd5b60008160011c9050919050565b7f45524332303a206d696e7420746f20746865207a65726f206164647265737300600082015250565b611a1480620007e56000396000f3fe608060405234801561001057600080fd5b50600436106100f55760003560e01c806370f38c2711610097578063a457c2d711610066578063a457c2d714610276578063a9059cbb146102a6578063dd62ed3e146102d6578063f2fde38b14610306576100f5565b806370f38c2714610214578063715018a6146102305780638da5cb5b1461023a57806395d89b4114610258576100f5565b806323b872dd116100d357806323b872dd14610166578063313ce5671461019657806339509351146101b457806370a08231146101e4576100f5565b806306fdde03146100fa578063095ea7b31461011857806318160ddd14610148575b600080fd5b610102610322565b60405161010f91906113d4565b60405180910390f35b610132600480360381019061012d919061115e565b6103b4565b60405161013f91906113b9565b60405180910390f35b6101506103d7565b60405161015d9190611536565b60405180910390f35b610180600480360381019061017b919061110b565b6103e1565b60405161018d91906113b9565b60405180910390f35b61019e610410565b6040516101ab9190611551565b60405180910390f35b6101ce60048036038101906101c9919061115e565b610419565b6040516101db91906113b9565b60405180910390f35b6101fe60048036038101906101f9919061109e565b6104c3565b60405161020b9190611536565b60405180910390f35b61022e6004803603810190610229919061119e565b61050b565b005b610238610594565b005b61024261061c565b60405161024f919061139e565b60405180910390f35b610260610646565b60405161026d91906113d4565b60405180910390f35b610290600480360381019061028b919061115e565b6106d8565b60405161029d91906113b9565b60405180910390f35b6102c060048036038101906102bb919061115e565b6107c2565b6040516102cd91906113b9565b60405180910390f35b6102f060048036038101906102eb91906110cb565b6107e5565b6040516102fd9190611536565b60405180910390f35b610320600480360381019061031b919061109e565b61086c565b005b60606003805461033190611666565b80601f016020809104026020016040519081016040528092919081815260200182805461035d90611666565b80156103aa5780601f1061037f576101008083540402835291602001916103aa565b820191906000526020600020905b81548152906001019060200180831161038d57829003601f168201915b5050505050905090565b6000806103bf610964565b90506103cc81858561096c565b600191505092915050565b6000600254905090565b6000806103ec610964565b90506103f9858285610b37565b610404858585610bc3565b60019150509392505050565b60006012905090565b600080610424610964565b90506104b8818585600160008673ffffffffffffffffffffffffffffffffffffffff1673ffffffffffffffffffffffffffffffffffffffff16815260200190815260200160002060008973ffffffffffffffffffffffffffffffffffffffff1673ffffffffffffffffffffffffffffffffffffffff168152602001908152602001600020546104b39190611588565b61096c565b600191505092915050565b60008060008373ffffffffffffffffffffffffffffffffffffffff1673ffffffffffffffffffffffffffffffffffffffff168152602001908152602001600020549050919050565b610513610964565b73ffffffffffffffffffffffffffffffffffffffff1661053161061c565b73ffffffffffffffffffffffffffffffffffffffff1614610587576040517f08c379a000000000000000000000000000000000000000000000000000000000815260040161057e90611496565b60405180910390fd5b6105913382610e44565b50565b61059c610964565b73ffffffffffffffffffffffffffffffffffffffff166105ba61061c565b73ffffffffffffffffffffffffffffffffffffffff1614610610576040517f08c379a000000000000000000000000000000000000000000000000000000000815260040161060790611496565b60405180910390fd5b61061a6000610fa4565b565b6000600560009054906101000a900473ffffffffffffffffffffffffffffffffffffffff16905090565b60606004805461065590611666565b80601f016020809104026020016040519081016040528092919081815260200182805461068190611666565b80156106ce5780601f106106a3576101008083540402835291602001916106ce565b820191906000526020600020905b8154815290600101906020018083116106b157829003601f168201915b5050505050905090565b6000806106e3610964565b90506000600160008373ffffffffffffffffffffffffffffffffffffffff1673ffffffffffffffffffffffffffffffffffffffff16815260200190815260200160002060008673ffffffffffffffffffffffffffffffffffffffff1673ffffffffffffffffffffffffffffffffffffffff168152602001908152602001600020549050838110156107a9576040517f08c379a00000000000000000000000000000000000000000000000000000000081526004016107a0906114f6565b60405180910390fd5b6107b6828686840361096c565b60019250505092915050565b6000806107cd610964565b90506107da818585610bc3565b600191505092915050565b6000600160008473ffffffffffffffffffffffffffffffffffffffff1673ffffffffffffffffffffffffffffffffffffffff16815260200190815260200160002060008373ffffffffffffffffffffffffffffffffffffffff1673ffffffffffffffffffffffffffffffffffffffff16815260200190815260200160002054905092915050565b610874610964565b73ffffffffffffffffffffffffffffffffffffffff1661089261061c565b73ffffffffffffffffffffffffffffffffffffffff16146108e8576040517f08c379a00000000000000000000000000000000000000000000000000000000081526004016108df90611496565b60405180910390fd5b600073ffffffffffffffffffffffffffffffffffffffff168173ffffffffffffffffffffffffffffffffffffffff161415610958576040517f08c379a000000000000000000000000000000000000000000000000000000000815260040161094f90611416565b60405180910390fd5b61096181610fa4565b50565b600033905090565b600073ffffffffffffffffffffffffffffffffffffffff168373ffffffffffffffffffffffffffffffffffffffff1614156109dc576040517f08c379a00000000000000000000000000000000000000000000000000000000081526004016109d3906114d6565b60405180910390fd5b600073ffffffffffffffffffffffffffffffffffffffff168273ffffffffffffffffffffffffffffffffffffffff161415610a4c576040517f08c379a0000000000000000000000000000000000000000000000000000000008152600401610a4390611436565b60405180910390fd5b80600160008573ffffffffffffffffffffffffffffffffffffffff1673ffffffffffffffffffffffffffffffffffffffff16815260200190815260200160002060008473ffffffffffffffffffffffffffffffffffffffff1673ffffffffffffffffffffffffffffffffffffffff168152602001908152602001600020819055508173ffffffffffffffffffffffffffffffffffffffff168373ffffffffffffffffffffffffffffffffffffffff167f8c5be1e5ebec7d5bd14f71427d1e84f3dd0314c0f7b2291e5b200ac8c7c3b92583604051610b2a9190611536565b60405180910390a3505050565b6000610b4384846107e5565b90507fffffffffffffffffffffffffffffffffffffffffffffffffffffffffffffffff8114610bbd5781811015610baf576040517f08c379a0000000000000000000000000000000000000000000000000000000008152600401610ba690611456565b60405180910390fd5b610bbc848484840361096c565b5b50505050565b600073ffffffffffffffffffffffffffffffffffffffff168373ffffffffffffffffffffffffffffffffffffffff161415610c33576040517f08c379a0000000000000000000000000000000000000000000000000000000008152600401610c2a906114b6565b60405180910390fd5b600073ffffffffffffffffffffffffffffffffffffffff168273ffffffffffffffffffffffffffffffffffffffff161415610ca3576040517f08c379a0000000000000000000000000000000000000000000000000000000008152600401610c9a906113f6565b60405180910390fd5b610cae83838361106a565b60008060008573ffffffffffffffffffffffffffffffffffffffff1673ffffffffffffffffffffffffffffffffffffffff16815260200190815260200160002054905081811015610d34576040517f08c379a0000000000000000000000000000000000000000000000000000000008152600401610d2b90611476565b60405180910390fd5b8181036000808673ffffffffffffffffffffffffffffffffffffffff1673ffffffffffffffffffffffffffffffffffffffff16815260200190815260200160002081905550816000808573ffffffffffffffffffffffffffffffffffffffff1673ffffffffffffffffffffffffffffffffffffffff1681526020019081526020016000206000828254610dc79190611588565b925050819055508273ffffffffffffffffffffffffffffffffffffffff168473ffffffffffffffffffffffffffffffffffffffff167fddf252ad1be2c89b69c2b068fc378daa952ba7f163c4a11628f55a4df523b3ef84604051610e2b9190611536565b60405180910390a3610e3e84848461106f565b50505050565b600073ffffffffffffffffffffffffffffffffffffffff168273ffffffffffffffffffffffffffffffffffffffff161415610eb4576040517f08c379a0000000000000000000000000000000000000000000000000000000008152600401610eab90611516565b60405180910390fd5b610ec06000838361106a565b8060026000828254610ed29190611588565b92505081905550806000808473ffffffffffffffffffffffffffffffffffffffff1673ffffffffffffffffffffffffffffffffffffffff1681526020019081526020016000206000828254610f279190611588565b925050819055508173ffffffffffffffffffffffffffffffffffffffff16600073ffffffffffffffffffffffffffffffffffffffff167fddf252ad1be2c89b69c2b068fc378daa952ba7f163c4a11628f55a4df523b3ef83604051610f8c9190611536565b60405180910390a3610fa06000838361106f565b5050565b6000600560009054906101000a900473ffffffffffffffffffffffffffffffffffffffff16905081600560006101000a81548173ffffffffffffffffffffffffffffffffffffffff021916908373ffffffffffffffffffffffffffffffffffffffff1602179055508173ffffffffffffffffffffffffffffffffffffffff168173ffffffffffffffffffffffffffffffffffffffff167f8be0079c531659141344cd1fd0a4f28419497f9722a3daafe3b4186f6b6457e060405160405180910390a35050565b505050565b505050565b600081359050611083816119b0565b92915050565b600081359050611098816119c7565b92915050565b6000602082840312156110b4576110b36116f6565b5b60006110c284828501611074565b91505092915050565b600080604083850312156110e2576110e16116f6565b5b60006110f085828601611074565b925050602061110185828601611074565b9150509250929050565b600080600060608486031215611124576111236116f6565b5b600061113286828701611074565b935050602061114386828701611074565b925050604061115486828701611089565b9150509250925092565b60008060408385031215611175576111746116f6565b5b600061118385828601611074565b925050602061119485828601611089565b9150509250929050565b6000602082840312156111b4576111b36116f6565b5b60006111c284828501611089565b91505092915050565b6111d4816115de565b82525050565b6111e3816115f0565b82525050565b60006111f48261156c565b6111fe8185611577565b935061120e818560208601611633565b611217816116fb565b840191505092915050565b600061122f602383611577565b915061123a8261170c565b604082019050919050565b6000611252602683611577565b915061125d8261175b565b604082019050919050565b6000611275602283611577565b9150611280826117aa565b604082019050919050565b6000611298601d83611577565b91506112a3826117f9565b602082019050919050565b60006112bb602683611577565b91506112c682611822565b604082019050919050565b60006112de602083611577565b91506112e982611871565b602082019050919050565b6000611301602583611577565b915061130c8261189a565b604082019050919050565b6000611324602483611577565b915061132f826118e9565b604082019050919050565b6000611347602583611577565b915061135282611938565b604082019050919050565b600061136a601f83611577565b915061137582611987565b602082019050919050565b6113898161161c565b82525050565b61139881611626565b82525050565b60006020820190506113b360008301846111cb565b92915050565b60006020820190506113ce60008301846111da565b92915050565b600060208201905081810360008301526113ee81846111e9565b905092915050565b6000602082019050818103600083015261140f81611222565b9050919050565b6000602082019050818103600083015261142f81611245565b9050919050565b6000602082019050818103600083015261144f81611268565b9050919050565b6000602082019050818103600083015261146f8161128b565b9050919050565b6000602082019050818103600083015261148f816112ae565b9050919050565b600060208201905081810360008301526114af816112d1565b9050919050565b600060208201905081810360008301526114cf816112f4565b9050919050565b600060208201905081810360008301526114ef81611317565b9050919050565b6000602082019050818103600083015261150f8161133a565b9050919050565b6000602082019050818103600083015261152f8161135d565b9050919050565b600060208201905061154b6000830184611380565b92915050565b6000602082019050611566600083018461138f565b92915050565b600081519050919050565b600082825260208201905092915050565b60006115938261161c565b915061159e8361161c565b9250827fffffffffffffffffffffffffffffffffffffffffffffffffffffffffffffffff038211156115d3576115d2611698565b5b828201905092915050565b60006115e9826115fc565b9050919050565b60008115159050919050565b600073ffffffffffffffffffffffffffffffffffffffff82169050919050565b6000819050919050565b600060ff82169050919050565b60005b83811015611651578082015181840152602081019050611636565b83811115611660576000848401525b50505050565b6000600282049050600182168061167e57607f821691505b60208210811415611692576116916116c7565b5b50919050565b7f4e487b7100000000000000000000000000000000000000000000000000000000600052601160045260246000fd5b7f4e487b7100000000000000000000000000000000000000000000000000000000600052602260045260246000fd5b600080fd5b6000601f19601f8301169050919050565b7f45524332303a207472616e7366657220746f20746865207a65726f206164647260008201527f6573730000000000000000000000000000000000000000000000000000000000602082015250565b7f4f776e61626c653a206e6577206f776e657220697320746865207a65726f206160008201527f6464726573730000000000000000000000000000000000000000000000000000602082015250565b7f45524332303a20617070726f766520746f20746865207a65726f20616464726560008201527f7373000000000000000000000000000000000000000000000000000000000000602082015250565b7f45524332303a20696e73756666696369656e7420616c6c6f77616e6365000000600082015250565b7f45524332303a207472616e7366657220616d6f756e742065786365656473206260008201527f616c616e63650000000000000000000000000000000000000000000000000000602082015250565b7f4f776e61626c653a2063616c6c6572206973206e6f7420746865206f776e6572600082015250565b7f45524332303a207472616e736665722066726f6d20746865207a65726f20616460008201527f6472657373000000000000000000000000000000000000000000000000000000602082015250565b7f45524332303a20617070726f76652066726f6d20746865207a65726f2061646460008201527f7265737300000000000000000000000000000000000000000000000000000000602082015250565b7f45524332303a2064656372656173656420616c6c6f77616e63652062656c6f7760008201527f207a65726f000000000000000000000000000000000000000000000000000000602082015250565b7f45524332303a206d696e7420746f20746865207a65726f206164647265737300600082015250565b6119b9816115de565b81146119c457600080fd5b50565b6119d08161161c565b81146119db57600080fd5b5056fea26469706673582212202dfca93654ce090224a810cc005b5b4af0890f84a493d80bb76f2ce898a6868364736f6c63430008070033",
  "linkReferences": {},
  "deployedLinkReferences": {}
}