{
  "_format": "hh-sol-artifact-1",
  "contractName": "EcellToken",
  "sourceName": "contracts/EcellToken.sol",
  "abi": [
    {
      "inputs": [],
      "stateMutability": "nonpayable",
      "type": "constructor"
    },
    {
      "anonymous": false,
      "inputs": [
        {
          "indexed": true,
          "internalType": "address",
          "name": "owner",
          "type": "address"
        },
        {
          "indexed": true,
          "internalType": "address",
          "name": "spender",
          "type": "address"
        },
        {
          "indexed": false,
          "internalType": "uint256",
          "name": "value",
          "type": "uint256"
        }
      ],
      "name": "Approval",
      "type": "event"
    },
    {
      "anonymous": false,
      "inputs": [
        {
          "indexed": true,
          "internalType": "address",
          "name": "previousOwner",
          "type": "address"
        },
        {
          "indexed": true,
          "internalType": "address",
          "name": "newOwner",
          "type": "address"
        }
      ],
      "name": "OwnershipTransferred",
      "type": "event"
    },
    {
      "anonymous": false,
      "inputs": [
        {
          "indexed": true,
          "internalType": "address",
          "name": "from",
          "type": "address"
        },
        {
          "indexed": true,
          "internalType": "address",
          "name": "to",
          "type": "address"
        },
        {
          "indexed": false,
          "internalType": "uint256",
          "name": "value",
          "type": "uint256"
        }
      ],
      "name": "Transfer",
      "type": "event"
    },
    {
      "inputs": [
        {
          "internalType": "address",
          "name": "owner",
          "type": "address"
        },
        {
          "internalType": "address",
          "name": "spender",
          "type": "address"
        }
      ],
      "name": "allowance",
      "outputs": [
        {
          "internalType": "uint256",
          "name": "",
          "type": "uint256"
        }
      ],
      "stateMutability": "view",
      "type": "function"
    },
    {
      "inputs": [
        {
          "internalType": "address",
          "name": "spender",
          "type": "address"
        },
        {
          "internalType": "uint256",
          "name": "amount",
          "type": "uint256"
        }
      ],
      "name": "approve",
      "outputs": [
        {
          "internalType": "bool",
          "name": "",
          "type": "bool"
        }
      ],
      "stateMutability": "nonpayable",
      "type": "function"
    },
    {
      "inputs": [
        {
          "internalType": "address",
          "name": "account",
          "type": "address"
        }
      ],
      "name": "balanceOf",
      "outputs": [
        {
          "internalType": "uint256",
          "name": "",
          "type": "uint256"
        }
      ],
      "stateMutability": "view",
      "type": "function"
    },
    {
      "inputs": [
        {
          "internalType": "address",
          "name": "account",
          "type": "address"
        },
        {
          "internalType": "uint256",
          "name": "amount",
          "type": "uint256"
        }
      ],
      "name": "burnTokens",
      "outputs": [],
      "stateMutability": "nonpayable",
      "type": "function"
    },
    {
      "inputs": [],
      "name": "decimals",
      "outputs": [
        {
          "internalType": "uint8",
          "name": "",
          "type": "uint8"
        }
      ],
      "stateMutability": "view",
      "type": "function"
    },
    {
      "inputs": [
        {
          "internalType": "address",
          "name": "spender",
          "type": "address"
        },
        {
          "internalType": "uint256",
          "name": "subtractedValue",
          "type": "uint256"
        }
      ],
      "name": "decreaseAllowance",
      "outputs": [
        {
          "internalType": "bool",
          "name": "",
          "type": "bool"
        }
      ],
      "stateMutability": "nonpayable",
      "type": "function"
    },
    {
      "inputs": [
        {
          "internalType": "uint256",
          "name": "quantity",
          "type": "uint256"
        }
      ],
      "name": "getMoreTokens",
      "outputs": [],
      "stateMutability": "nonpayable",
      "type": "function"
    },
    {
      "inputs": [
        {
          "internalType": "address",
          "name": "spender",
          "type": "address"
        },
        {
          "internalType": "uint256",
          "name": "addedValue",
          "type": "uint256"
        }
      ],
      "name": "increaseAllowance",
      "outputs": [
        {
          "internalType": "bool",
          "name": "",
          "type": "bool"
        }
      ],
      "stateMutability": "nonpayable",
      "type": "function"
    },
    {
      "inputs": [],
      "name": "name",
      "outputs": [
        {
          "internalType": "string",
          "name": "",
          "type": "string"
        }
      ],
      "stateMutability": "view",
      "type": "function"
    },
    {
      "inputs": [],
      "name": "owner",
      "outputs": [
        {
          "internalType": "address",
          "name": "",
          "type": "address"
        }
      ],
      "stateMutability": "view",
      "type": "function"
    },
    {
      "inputs": [],
      "name": "renounceOwnership",
      "outputs": [],
      "stateMutability": "nonpayable",
      "type": "function"
    },
    {
      "inputs": [],
      "name": "symbol",
      "outputs": [
        {
          "internalType": "string",
          "name": "",
          "type": "string"
        }
      ],
      "stateMutability": "view",
      "type": "function"
    },
    {
      "inputs": [],
      "name": "totalSupply",
      "outputs": [
        {
          "internalType": "uint256",
          "name": "",
          "type": "uint256"
        }
      ],
      "stateMutability": "view",
      "type": "function"
    },
    {
      "inputs": [
        {
          "internalType": "address",
          "name": "to",
          "type": "address"
        },
        {
          "internalType": "uint256",
          "name": "amount",
          "type": "uint256"
        }
      ],
      "name": "transfer",
      "outputs": [
        {
          "internalType": "bool",
          "name": "",
          "type": "bool"
        }
      ],
      "stateMutability": "nonpayable",
      "type": "function"
    },
    {
      "inputs": [
        {
          "internalType": "address",
          "name": "from",
          "type": "address"
        },
        {
          "internalType": "address",
          "name": "to",
          "type": "address"
        },
        {
          "internalType": "uint256",
          "name": "amount",
          "type": "uint256"
        }
      ],
      "name": "transferFrom",
      "outputs": [
        {
          "internalType": "bool",
          "name": "",
          "type": "bool"
        }
      ],
      "stateMutability": "nonpayable",
      "type": "function"
    },
    {
      "inputs": [
        {
          "internalType": "address",
          "name": "newOwner",
          "type": "address"
        }
      ],
      "name": "transferOwnership",
      "outputs": [],
      "stateMutability": "nonpayable",
      "type": "function"
    }
  ],
  "bytecode": "0x60806040523480156200001157600080fd5b50604080518082018252600a81526922b1b2b6362a37b5b2b760b11b602080830191825283518085019094526005845264454e54525960d81b9084015281519192916200006191600391620001ff565b50805162000077906004906020840190620001ff565b505050620000946200008e620000c160201b60201c565b620000c5565b620000bb33620000a76012600a62000309565b620000b590613a98620003d4565b62000117565b62000449565b3390565b600580546001600160a01b038381166001600160a01b0319831681179093556040519116919082907f8be0079c531659141344cd1fd0a4f28419497f9722a3daafe3b4186f6b6457e090600090a35050565b6001600160a01b038216620001725760405162461bcd60e51b815260206004820152601f60248201527f45524332303a206d696e7420746f20746865207a65726f206164647265737300604482015260640160405180910390fd5b8060026000828254620001869190620002a5565b90915550506001600160a01b03821660009081526020819052604081208054839290620001b5908490620002a5565b90915550506040518181526001600160a01b038316906000907fddf252ad1be2c89b69c2b068fc378daa952ba7f163c4a11628f55a4df523b3ef9060200160405180910390a35050565b8280546200020d90620003f6565b90600052602060002090601f0160209004810192826200023157600085556200027c565b82601f106200024c57805160ff19168380011785556200027c565b828001600101855582156200027c579182015b828111156200027c5782518255916020019190600101906200025f565b506200028a9291506200028e565b5090565b5b808211156200028a57600081556001016200028f565b60008219821115620002bb57620002bb62000433565b500190565b600181815b8085111562000301578160001904821115620002e557620002e562000433565b80851615620002f357918102915b93841c9390800290620002c5565b509250929050565b60006200031783836200031e565b9392505050565b6000826200032f57506001620003ce565b816200033e57506000620003ce565b8160018114620003575760028114620003625762000382565b6001915050620003ce565b60ff84111562000376576200037662000433565b50506001821b620003ce565b5060208310610133831016604e8410600b8410161715620003a7575081810a620003ce565b620003b38383620002c0565b8060001904821115620003ca57620003ca62000433565b0290505b92915050565b6000816000190483118215151615620003f157620003f162000433565b500290565b600181811c908216806200040b57607f821691505b602082108114156200042d57634e487b7160e01b600052602260045260246000fd5b50919050565b634e487b7160e01b600052601160045260246000fd5b610e1c80620004596000396000f3fe608060405234801561001057600080fd5b50600436106101005760003560e01c806370f38c2711610097578063a457c2d711610066578063a457c2d714610209578063a9059cbb1461021c578063dd62ed3e1461022f578063f2fde38b1461024257600080fd5b806370f38c27146101cb578063715018a6146101de5780638da5cb5b146101e657806395d89b411461020157600080fd5b806323b872dd116100d357806323b872dd1461016d578063313ce56714610180578063395093511461018f57806370a08231146101a257600080fd5b806306fdde0314610105578063095ea7b3146101235780630d1118ce1461014657806318160ddd1461015b575b600080fd5b61010d610255565b60405161011a9190610c07565b60405180910390f35b610136610131366004610bc4565b6102e7565b604051901515815260200161011a565b610159610154366004610bc4565b610301565b005b6002545b60405190815260200161011a565b61013661017b366004610b88565b610317565b6040516012815260200161011a565b61013661019d366004610bc4565b61033b565b61015f6101b0366004610b33565b6001600160a01b031660009081526020819052604090205490565b6101596101d9366004610bee565b61035d565b610159610387565b6005546040516001600160a01b03909116815260200161011a565b61010d61039b565b610136610217366004610bc4565b6103aa565b61013661022a366004610bc4565b61042a565b61015f61023d366004610b55565b610438565b610159610250366004610b33565b610463565b60606003805461026490610d95565b80601f016020809104026020016040519081016040528092919081815260200182805461029090610d95565b80156102dd5780601f106102b2576101008083540402835291602001916102dd565b820191906000526020600020905b8154815290600101906020018083116102c057829003601f168201915b5050505050905090565b6000336102f58185856104d9565b60019150505b92915050565b6103096105fe565b6103138282610658565b5050565b60003361032585828561079e565b610330858585610818565b506001949350505050565b6000336102f581858561034e8383610438565b6103589190610c5c565b6104d9565b6103656105fe565b610384336103756012600a610cb7565b61037f9084610d5f565b6109e6565b50565b61038f6105fe565b6103996000610ac5565b565b60606004805461026490610d95565b600033816103b88286610438565b90508381101561041d5760405162461bcd60e51b815260206004820152602560248201527f45524332303a2064656372656173656420616c6c6f77616e63652062656c6f77604482015264207a65726f60d81b60648201526084015b60405180910390fd5b61033082868684036104d9565b6000336102f5818585610818565b6001600160a01b03918216600090815260016020908152604080832093909416825291909152205490565b61046b6105fe565b6001600160a01b0381166104d05760405162461bcd60e51b815260206004820152602660248201527f4f776e61626c653a206e6577206f776e657220697320746865207a65726f206160448201526564647265737360d01b6064820152608401610414565b61038481610ac5565b6001600160a01b03831661053b5760405162461bcd60e51b8152602060048201526024808201527f45524332303a20617070726f76652066726f6d20746865207a65726f206164646044820152637265737360e01b6064820152608401610414565b6001600160a01b03821661059c5760405162461bcd60e51b815260206004820152602260248201527f45524332303a20617070726f766520746f20746865207a65726f206164647265604482015261737360f01b6064820152608401610414565b6001600160a01b0383811660008181526001602090815260408083209487168084529482529182902085905590518481527f8c5be1e5ebec7d5bd14f71427d1e84f3dd0314c0f7b2291e5b200ac8c7c3b92591015b60405180910390a3505050565b6005546001600160a01b031633146103995760405162461bcd60e51b815260206004820181905260248201527f4f776e61626c653a2063616c6c6572206973206e6f7420746865206f776e65726044820152606401610414565b6001600160a01b0382166106b85760405162461bcd60e51b815260206004820152602160248201527f45524332303a206275726e2066726f6d20746865207a65726f206164647265736044820152607360f81b6064820152608401610414565b6001600160a01b0382166000908152602081905260409020548181101561072c5760405162461bcd60e51b815260206004820152602260248201527f45524332303a206275726e20616d6f756e7420657863656564732062616c616e604482015261636560f01b6064820152608401610414565b6001600160a01b038316600090815260208190526040812083830390556002805484929061075b908490610d7e565b90915550506040518281526000906001600160a01b038516907fddf252ad1be2c89b69c2b068fc378daa952ba7f163c4a11628f55a4df523b3ef906020016105f1565b60006107aa8484610438565b9050600019811461081257818110156108055760405162461bcd60e51b815260206004820152601d60248201527f45524332303a20696e73756666696369656e7420616c6c6f77616e63650000006044820152606401610414565b61081284848484036104d9565b50505050565b6001600160a01b03831661087c5760405162461bcd60e51b815260206004820152602560248201527f45524332303a207472616e736665722066726f6d20746865207a65726f206164604482015264647265737360d81b6064820152608401610414565b6001600160a01b0382166108de5760405162461bcd60e51b815260206004820152602360248201527f45524332303a207472616e7366657220746f20746865207a65726f206164647260448201526265737360e81b6064820152608401610414565b6001600160a01b038316600090815260208190526040902054818110156109565760405162461bcd60e51b815260206004820152602660248201527f45524332303a207472616e7366657220616d6f756e7420657863656564732062604482015265616c616e636560d01b6064820152608401610414565b6001600160a01b0380851660009081526020819052604080822085850390559185168152908120805484929061098d908490610c5c565b92505081905550826001600160a01b0316846001600160a01b03167fddf252ad1be2c89b69c2b068fc378daa952ba7f163c4a11628f55a4df523b3ef846040516109d991815260200190565b60405180910390a3610812565b6001600160a01b038216610a3c5760405162461bcd60e51b815260206004820152601f60248201527f45524332303a206d696e7420746f20746865207a65726f2061646472657373006044820152606401610414565b8060026000828254610a4e9190610c5c565b90915550506001600160a01b03821660009081526020819052604081208054839290610a7b908490610c5c565b90915550506040518181526001600160a01b038316906000907fddf252ad1be2c89b69c2b068fc378daa952ba7f163c4a11628f55a4df523b3ef9060200160405180910390a35050565b600580546001600160a01b038381166001600160a01b0319831681179093556040519116919082907f8be0079c531659141344cd1fd0a4f28419497f9722a3daafe3b4186f6b6457e090600090a35050565b80356001600160a01b0381168114610b2e57600080fd5b919050565b600060208284031215610b4557600080fd5b610b4e82610b17565b9392505050565b60008060408385031215610b6857600080fd5b610b7183610b17565b9150610b7f60208401610b17565b90509250929050565b600080600060608486031215610b9d57600080fd5b610ba684610b17565b9250610bb460208501610b17565b9150604084013590509250925092565b60008060408385031215610bd757600080fd5b610be083610b17565b946020939093013593505050565b600060208284031215610c0057600080fd5b5035919050565b600060208083528351808285015260005b81811015610c3457858101830151858201604001528201610c18565b81811115610c46576000604083870101525b50601f01601f1916929092016040019392505050565b60008219821115610c6f57610c6f610dd0565b500190565b600181815b80851115610caf578160001904821115610c9557610c95610dd0565b80851615610ca257918102915b93841c9390800290610c79565b509250929050565b6000610b4e8383600082610ccd575060016102fb565b81610cda575060006102fb565b8160018114610cf05760028114610cfa57610d16565b60019150506102fb565b60ff841115610d0b57610d0b610dd0565b50506001821b6102fb565b5060208310610133831016604e8410600b8410161715610d39575081810a6102fb565b610d438383610c74565b8060001904821115610d5757610d57610dd0565b029392505050565b6000816000190483118215151615610d7957610d79610dd0565b500290565b600082821015610d9057610d90610dd0565b500390565b600181811c90821680610da957607f821691505b60208210811415610dca57634e487b7160e01b600052602260045260246000fd5b50919050565b634e487b7160e01b600052601160045260246000fdfea264697066735822122062527ed39780cba105067fd972f0526f896809e0db6e8e23cb979c363235f69164736f6c63430008070033",
  "linkReferences": {},
  "deployedLinkReferences": {}
}