{
  "_format": "hh-sol-artifact-1",
  "contractName": "EcellToken",
  "sourceName": "contracts/EcellToken.sol",
  "abi": [
    {
      "inputs": [],
      "stateMutability": "nonpayable",
      "type": "constructor"
    },
    {
      "anonymous": false,
      "inputs": [
        {
          "indexed": true,
          "internalType": "address",
          "name": "owner",
          "type": "address"
        },
        {
          "indexed": true,
          "internalType": "address",
          "name": "spender",
          "type": "address"
        },
        {
          "indexed": false,
          "internalType": "uint256",
          "name": "value",
          "type": "uint256"
        }
      ],
      "name": "Approval",
      "type": "event"
    },
    {
      "anonymous": false,
      "inputs": [
        {
          "indexed": true,
          "internalType": "address",
          "name": "previousOwner",
          "type": "address"
        },
        {
          "indexed": true,
          "internalType": "address",
          "name": "newOwner",
          "type": "address"
        }
      ],
      "name": "OwnershipTransferred",
      "type": "event"
    },
    {
      "anonymous": false,
      "inputs": [
        {
          "indexed": true,
          "internalType": "address",
          "name": "from",
          "type": "address"
        },
        {
          "indexed": true,
          "internalType": "address",
          "name": "to",
          "type": "address"
        },
        {
          "indexed": false,
          "internalType": "uint256",
          "name": "value",
          "type": "uint256"
        }
      ],
      "name": "Transfer",
      "type": "event"
    },
    {
      "inputs": [
        {
          "internalType": "address",
          "name": "owner",
          "type": "address"
        },
        {
          "internalType": "address",
          "name": "spender",
          "type": "address"
        }
      ],
      "name": "allowance",
      "outputs": [
        {
          "internalType": "uint256",
          "name": "",
          "type": "uint256"
        }
      ],
      "stateMutability": "view",
      "type": "function"
    },
    {
      "inputs": [
        {
          "internalType": "address",
          "name": "spender",
          "type": "address"
        },
        {
          "internalType": "uint256",
          "name": "amount",
          "type": "uint256"
        }
      ],
      "name": "approve",
      "outputs": [
        {
          "internalType": "bool",
          "name": "",
          "type": "bool"
        }
      ],
      "stateMutability": "nonpayable",
      "type": "function"
    },
    {
      "inputs": [
        {
          "internalType": "address",
          "name": "account",
          "type": "address"
        }
      ],
      "name": "balanceOf",
      "outputs": [
        {
          "internalType": "uint256",
          "name": "",
          "type": "uint256"
        }
      ],
      "stateMutability": "view",
      "type": "function"
    },
    {
      "inputs": [
        {
          "internalType": "address",
          "name": "account",
          "type": "address"
        },
        {
          "internalType": "uint256",
          "name": "amount",
          "type": "uint256"
        }
      ],
      "name": "burnTokens",
      "outputs": [],
      "stateMutability": "nonpayable",
      "type": "function"
    },
    {
      "inputs": [],
      "name": "decimals",
      "outputs": [
        {
          "internalType": "uint8",
          "name": "",
          "type": "uint8"
        }
      ],
      "stateMutability": "view",
      "type": "function"
    },
    {
      "inputs": [
        {
          "internalType": "address",
          "name": "spender",
          "type": "address"
        },
        {
          "internalType": "uint256",
          "name": "subtractedValue",
          "type": "uint256"
        }
      ],
      "name": "decreaseAllowance",
      "outputs": [
        {
          "internalType": "bool",
          "name": "",
          "type": "bool"
        }
      ],
      "stateMutability": "nonpayable",
      "type": "function"
    },
    {
      "inputs": [
        {
          "internalType": "uint256",
          "name": "quantity",
          "type": "uint256"
        }
      ],
      "name": "getMoreTokens",
      "outputs": [],
      "stateMutability": "nonpayable",
      "type": "function"
    },
    {
      "inputs": [
        {
          "internalType": "address",
          "name": "spender",
          "type": "address"
        },
        {
          "internalType": "uint256",
          "name": "addedValue",
          "type": "uint256"
        }
      ],
      "name": "increaseAllowance",
      "outputs": [
        {
          "internalType": "bool",
          "name": "",
          "type": "bool"
        }
      ],
      "stateMutability": "nonpayable",
      "type": "function"
    },
    {
      "inputs": [],
      "name": "name",
      "outputs": [
        {
          "internalType": "string",
          "name": "",
          "type": "string"
        }
      ],
      "stateMutability": "view",
      "type": "function"
    },
    {
      "inputs": [],
      "name": "owner",
      "outputs": [
        {
          "internalType": "address",
          "name": "",
          "type": "address"
        }
      ],
      "stateMutability": "view",
      "type": "function"
    },
    {
      "inputs": [],
      "name": "renounceOwnership",
      "outputs": [],
      "stateMutability": "nonpayable",
      "type": "function"
    },
    {
      "inputs": [],
      "name": "symbol",
      "outputs": [
        {
          "internalType": "string",
          "name": "",
          "type": "string"
        }
      ],
      "stateMutability": "view",
      "type": "function"
    },
    {
      "inputs": [],
      "name": "totalSupply",
      "outputs": [
        {
          "internalType": "uint256",
          "name": "",
          "type": "uint256"
        }
      ],
      "stateMutability": "view",
      "type": "function"
    },
    {
      "inputs": [
        {
          "internalType": "address",
          "name": "to",
          "type": "address"
        },
        {
          "internalType": "uint256",
          "name": "amount",
          "type": "uint256"
        }
      ],
      "name": "transfer",
      "outputs": [
        {
          "internalType": "bool",
          "name": "",
          "type": "bool"
        }
      ],
      "stateMutability": "nonpayable",
      "type": "function"
    },
    {
      "inputs": [
        {
          "internalType": "address",
          "name": "from",
          "type": "address"
        },
        {
          "internalType": "address",
          "name": "to",
          "type": "address"
        },
        {
          "internalType": "uint256",
          "name": "amount",
          "type": "uint256"
        }
      ],
      "name": "transferFrom",
      "outputs": [
        {
          "internalType": "bool",
          "name": "",
          "type": "bool"
        }
      ],
      "stateMutability": "nonpayable",
      "type": "function"
    },
    {
      "inputs": [
        {
          "internalType": "address",
          "name": "newOwner",
          "type": "address"
        }
      ],
      "name": "transferOwnership",
      "outputs": [],
      "stateMutability": "nonpayable",
      "type": "function"
    }
  ],
  "bytecode": "0x60806040523480156200001157600080fd5b50604080518082018252600a81526922b1b2b6362a37b5b2b760b11b602080830191825283518085019094526005845264454e54525960d81b9084015281519192916200006191600391620001ff565b50805162000077906004906020840190620001ff565b505050620000946200008e620000c160201b60201c565b620000c5565b620000bb33620000a76012600a62000309565b620000b590613a98620003d4565b62000117565b62000449565b3390565b600580546001600160a01b038381166001600160a01b0319831681179093556040519116919082907f8be0079c531659141344cd1fd0a4f28419497f9722a3daafe3b4186f6b6457e090600090a35050565b6001600160a01b038216620001725760405162461bcd60e51b815260206004820152601f60248201527f45524332303a206d696e7420746f20746865207a65726f206164647265737300604482015260640160405180910390fd5b8060026000828254620001869190620002a5565b90915550506001600160a01b03821660009081526020819052604081208054839290620001b5908490620002a5565b90915550506040518181526001600160a01b038316906000907fddf252ad1be2c89b69c2b068fc378daa952ba7f163c4a11628f55a4df523b3ef9060200160405180910390a35050565b8280546200020d90620003f6565b90600052602060002090601f0160209004810192826200023157600085556200027c565b82601f106200024c57805160ff19168380011785556200027c565b828001600101855582156200027c579182015b828111156200027c5782518255916020019190600101906200025f565b506200028a9291506200028e565b5090565b5b808211156200028a57600081556001016200028f565b60008219821115620002bb57620002bb62000433565b500190565b600181815b8085111562000301578160001904821115620002e557620002e562000433565b80851615620002f357918102915b93841c9390800290620002c5565b509250929050565b60006200031783836200031e565b9392505050565b6000826200032f57506001620003ce565b816200033e57506000620003ce565b8160018114620003575760028114620003625762000382565b6001915050620003ce565b60ff84111562000376576200037662000433565b50506001821b620003ce565b5060208310610133831016604e8410600b8410161715620003a7575081810a620003ce565b620003b38383620002c0565b8060001904821115620003ca57620003ca62000433565b0290505b92915050565b6000816000190483118215151615620003f157620003f162000433565b500290565b600181811c908216806200040b57607f821691505b602082108114156200042d57634e487b7160e01b600052602260045260246000fd5b50919050565b634e487b7160e01b600052601160045260246000fd5b610eca80620004596000396000f3fe608060405234801561001057600080fd5b50600436106101005760003560e01c806370f38c2711610097578063a457c2d711610066578063a457c2d714610209578063a9059cbb1461021c578063dd62ed3e1461022f578063f2fde38b1461026857600080fd5b806370f38c27146101cb578063715018a6146101de5780638da5cb5b146101e657806395d89b411461020157600080fd5b806323b872dd116100d357806323b872dd1461016d578063313ce56714610180578063395093511461018f57806370a08231146101a257600080fd5b806306fdde0314610105578063095ea7b3146101235780630d1118ce1461014657806318160ddd1461015b575b600080fd5b61010d61027b565b60405161011a9190610c80565b60405180910390f35b610136610131366004610c3d565b61030d565b604051901515815260200161011a565b610159610154366004610c3d565b610327565b005b6002545b60405190815260200161011a565b61013661017b366004610c01565b610368565b6040516012815260200161011a565b61013661019d366004610c3d565b61038c565b61015f6101b0366004610bac565b6001600160a01b031660009081526020819052604090205490565b6101596101d9366004610c67565b6103cb565b610159610417565b6005546040516001600160a01b03909116815260200161011a565b61010d61044d565b610136610217366004610c3d565b61045c565b61013661022a366004610c3d565b6104ee565b61015f61023d366004610bce565b6001600160a01b03918216600090815260016020908152604080832093909416825291909152205490565b610159610276366004610bac565b6104fc565b60606003805461028a90610e43565b80601f01602080910402602001604051908101604052809291908181526020018280546102b690610e43565b80156103035780601f106102d857610100808354040283529160200191610303565b820191906000526020600020905b8154815290600101906020018083116102e657829003601f168201915b5050505050905090565b60003361031b818585610594565b60019150505b92915050565b6005546001600160a01b0316331461035a5760405162461bcd60e51b815260040161035190610cd5565b60405180910390fd5b61036482826106b9565b5050565b6000336103768582856107ff565b610381858585610891565b506001949350505050565b3360008181526001602090815260408083206001600160a01b038716845290915281205490919061031b90829086906103c6908790610d0a565b610594565b6005546001600160a01b031633146103f55760405162461bcd60e51b815260040161035190610cd5565b610414336104056012600a610d65565b61040f9084610e0d565b610a5f565b50565b6005546001600160a01b031633146104415760405162461bcd60e51b815260040161035190610cd5565b61044b6000610b3e565b565b60606004805461028a90610e43565b3360008181526001602090815260408083206001600160a01b0387168452909152812054909190838110156104e15760405162461bcd60e51b815260206004820152602560248201527f45524332303a2064656372656173656420616c6c6f77616e63652062656c6f77604482015264207a65726f60d81b6064820152608401610351565b6103818286868403610594565b60003361031b818585610891565b6005546001600160a01b031633146105265760405162461bcd60e51b815260040161035190610cd5565b6001600160a01b03811661058b5760405162461bcd60e51b815260206004820152602660248201527f4f776e61626c653a206e6577206f776e657220697320746865207a65726f206160448201526564647265737360d01b6064820152608401610351565b61041481610b3e565b6001600160a01b0383166105f65760405162461bcd60e51b8152602060048201526024808201527f45524332303a20617070726f76652066726f6d20746865207a65726f206164646044820152637265737360e01b6064820152608401610351565b6001600160a01b0382166106575760405162461bcd60e51b815260206004820152602260248201527f45524332303a20617070726f766520746f20746865207a65726f206164647265604482015261737360f01b6064820152608401610351565b6001600160a01b0383811660008181526001602090815260408083209487168084529482529182902085905590518481527f8c5be1e5ebec7d5bd14f71427d1e84f3dd0314c0f7b2291e5b200ac8c7c3b92591015b60405180910390a3505050565b6001600160a01b0382166107195760405162461bcd60e51b815260206004820152602160248201527f45524332303a206275726e2066726f6d20746865207a65726f206164647265736044820152607360f81b6064820152608401610351565b6001600160a01b0382166000908152602081905260409020548181101561078d5760405162461bcd60e51b815260206004820152602260248201527f45524332303a206275726e20616d6f756e7420657863656564732062616c616e604482015261636560f01b6064820152608401610351565b6001600160a01b03831660009081526020819052604081208383039055600280548492906107bc908490610e2c565b90915550506040518281526000906001600160a01b038516907fddf252ad1be2c89b69c2b068fc378daa952ba7f163c4a11628f55a4df523b3ef906020016106ac565b6001600160a01b03838116600090815260016020908152604080832093861683529290522054600019811461088b578181101561087e5760405162461bcd60e51b815260206004820152601d60248201527f45524332303a20696e73756666696369656e7420616c6c6f77616e63650000006044820152606401610351565b61088b8484848403610594565b50505050565b6001600160a01b0383166108f55760405162461bcd60e51b815260206004820152602560248201527f45524332303a207472616e736665722066726f6d20746865207a65726f206164604482015264647265737360d81b6064820152608401610351565b6001600160a01b0382166109575760405162461bcd60e51b815260206004820152602360248201527f45524332303a207472616e7366657220746f20746865207a65726f206164647260448201526265737360e81b6064820152608401610351565b6001600160a01b038316600090815260208190526040902054818110156109cf5760405162461bcd60e51b815260206004820152602660248201527f45524332303a207472616e7366657220616d6f756e7420657863656564732062604482015265616c616e636560d01b6064820152608401610351565b6001600160a01b03808516600090815260208190526040808220858503905591851681529081208054849290610a06908490610d0a565b92505081905550826001600160a01b0316846001600160a01b03167fddf252ad1be2c89b69c2b068fc378daa952ba7f163c4a11628f55a4df523b3ef84604051610a5291815260200190565b60405180910390a361088b565b6001600160a01b038216610ab55760405162461bcd60e51b815260206004820152601f60248201527f45524332303a206d696e7420746f20746865207a65726f2061646472657373006044820152606401610351565b8060026000828254610ac79190610d0a565b90915550506001600160a01b03821660009081526020819052604081208054839290610af4908490610d0a565b90915550506040518181526001600160a01b038316906000907fddf252ad1be2c89b69c2b068fc378daa952ba7f163c4a11628f55a4df523b3ef9060200160405180910390a35050565b600580546001600160a01b038381166001600160a01b0319831681179093556040519116919082907f8be0079c531659141344cd1fd0a4f28419497f9722a3daafe3b4186f6b6457e090600090a35050565b80356001600160a01b0381168114610ba757600080fd5b919050565b600060208284031215610bbe57600080fd5b610bc782610b90565b9392505050565b60008060408385031215610be157600080fd5b610bea83610b90565b9150610bf860208401610b90565b90509250929050565b600080600060608486031215610c1657600080fd5b610c1f84610b90565b9250610c2d60208501610b90565b9150604084013590509250925092565b60008060408385031215610c5057600080fd5b610c5983610b90565b946020939093013593505050565b600060208284031215610c7957600080fd5b5035919050565b600060208083528351808285015260005b81811015610cad57858101830151858201604001528201610c91565b81811115610cbf576000604083870101525b50601f01601f1916929092016040019392505050565b6020808252818101527f4f776e61626c653a2063616c6c6572206973206e6f7420746865206f776e6572604082015260600190565b60008219821115610d1d57610d1d610e7e565b500190565b600181815b80851115610d5d578160001904821115610d4357610d43610e7e565b80851615610d5057918102915b93841c9390800290610d27565b509250929050565b6000610bc78383600082610d7b57506001610321565b81610d8857506000610321565b8160018114610d9e5760028114610da857610dc4565b6001915050610321565b60ff841115610db957610db9610e7e565b50506001821b610321565b5060208310610133831016604e8410600b8410161715610de7575081810a610321565b610df18383610d22565b8060001904821115610e0557610e05610e7e565b029392505050565b6000816000190483118215151615610e2757610e27610e7e565b500290565b600082821015610e3e57610e3e610e7e565b500390565b600181811c90821680610e5757607f821691505b60208210811415610e7857634e487b7160e01b600052602260045260246000fd5b50919050565b634e487b7160e01b600052601160045260246000fdfea264697066735822122010449ec033b64db06bd637b30c5da83359aef4fa418c60c836fdaf23f0df50a364736f6c63430008070033",
  "linkReferences": {},
  "deployedLinkReferences": {}
}