{
  "_format": "hh-sol-artifact-1",
  "contractName": "EcellToken",
  "sourceName": "contracts/EcellToken.sol",
  "abi": [
    {
      "inputs": [],
      "stateMutability": "nonpayable",
      "type": "constructor"
    },
    {
      "anonymous": false,
      "inputs": [
        {
          "indexed": true,
          "internalType": "address",
          "name": "owner",
          "type": "address"
        },
        {
          "indexed": true,
          "internalType": "address",
          "name": "spender",
          "type": "address"
        },
        {
          "indexed": false,
          "internalType": "uint256",
          "name": "value",
          "type": "uint256"
        }
      ],
      "name": "Approval",
      "type": "event"
    },
    {
      "anonymous": false,
      "inputs": [
        {
          "indexed": true,
          "internalType": "address",
          "name": "previousOwner",
          "type": "address"
        },
        {
          "indexed": true,
          "internalType": "address",
          "name": "newOwner",
          "type": "address"
        }
      ],
      "name": "OwnershipTransferred",
      "type": "event"
    },
    {
      "anonymous": false,
      "inputs": [
        {
          "indexed": true,
          "internalType": "address",
          "name": "from",
          "type": "address"
        },
        {
          "indexed": true,
          "internalType": "address",
          "name": "to",
          "type": "address"
        },
        {
          "indexed": false,
          "internalType": "uint256",
          "name": "value",
          "type": "uint256"
        }
      ],
      "name": "Transfer",
      "type": "event"
    },
    {
      "inputs": [
        {
          "internalType": "address",
          "name": "owner",
          "type": "address"
        },
        {
          "internalType": "address",
          "name": "spender",
          "type": "address"
        }
      ],
      "name": "allowance",
      "outputs": [
        {
          "internalType": "uint256",
          "name": "",
          "type": "uint256"
        }
      ],
      "stateMutability": "view",
      "type": "function"
    },
    {
      "inputs": [
        {
          "internalType": "address",
          "name": "spender",
          "type": "address"
        },
        {
          "internalType": "uint256",
          "name": "amount",
          "type": "uint256"
        }
      ],
      "name": "approve",
      "outputs": [
        {
          "internalType": "bool",
          "name": "",
          "type": "bool"
        }
      ],
      "stateMutability": "nonpayable",
      "type": "function"
    },
    {
      "inputs": [
        {
          "internalType": "address",
          "name": "account",
          "type": "address"
        }
      ],
      "name": "balanceOf",
      "outputs": [
        {
          "internalType": "uint256",
          "name": "",
          "type": "uint256"
        }
      ],
      "stateMutability": "view",
      "type": "function"
    },
    {
      "inputs": [],
      "name": "decimals",
      "outputs": [
        {
          "internalType": "uint8",
          "name": "",
          "type": "uint8"
        }
      ],
      "stateMutability": "view",
      "type": "function"
    },
    {
      "inputs": [
        {
          "internalType": "address",
          "name": "spender",
          "type": "address"
        },
        {
          "internalType": "uint256",
          "name": "subtractedValue",
          "type": "uint256"
        }
      ],
      "name": "decreaseAllowance",
      "outputs": [
        {
          "internalType": "bool",
          "name": "",
          "type": "bool"
        }
      ],
      "stateMutability": "nonpayable",
      "type": "function"
    },
    {
      "inputs": [
        {
          "internalType": "uint256",
          "name": "quantity",
          "type": "uint256"
        }
      ],
      "name": "getMoreTokens",
      "outputs": [],
      "stateMutability": "nonpayable",
      "type": "function"
    },
    {
      "inputs": [
        {
          "internalType": "address",
          "name": "spender",
          "type": "address"
        },
        {
          "internalType": "uint256",
          "name": "addedValue",
          "type": "uint256"
        }
      ],
      "name": "increaseAllowance",
      "outputs": [
        {
          "internalType": "bool",
          "name": "",
          "type": "bool"
        }
      ],
      "stateMutability": "nonpayable",
      "type": "function"
    },
    {
      "inputs": [],
      "name": "name",
      "outputs": [
        {
          "internalType": "string",
          "name": "",
          "type": "string"
        }
      ],
      "stateMutability": "view",
      "type": "function"
    },
    {
      "inputs": [],
      "name": "owner",
      "outputs": [
        {
          "internalType": "address",
          "name": "",
          "type": "address"
        }
      ],
      "stateMutability": "view",
      "type": "function"
    },
    {
      "inputs": [],
      "name": "renounceOwnership",
      "outputs": [],
      "stateMutability": "nonpayable",
      "type": "function"
    },
    {
      "inputs": [],
      "name": "symbol",
      "outputs": [
        {
          "internalType": "string",
          "name": "",
          "type": "string"
        }
      ],
      "stateMutability": "view",
      "type": "function"
    },
    {
      "inputs": [],
      "name": "totalSupply",
      "outputs": [
        {
          "internalType": "uint256",
          "name": "",
          "type": "uint256"
        }
      ],
      "stateMutability": "view",
      "type": "function"
    },
    {
      "inputs": [
        {
          "internalType": "address",
          "name": "to",
          "type": "address"
        },
        {
          "internalType": "uint256",
          "name": "amount",
          "type": "uint256"
        }
      ],
      "name": "transfer",
      "outputs": [
        {
          "internalType": "bool",
          "name": "",
          "type": "bool"
        }
      ],
      "stateMutability": "nonpayable",
      "type": "function"
    },
    {
      "inputs": [
        {
          "internalType": "address",
          "name": "from",
          "type": "address"
        },
        {
          "internalType": "address",
          "name": "to",
          "type": "address"
        },
        {
          "internalType": "uint256",
          "name": "amount",
          "type": "uint256"
        }
      ],
      "name": "transferFrom",
      "outputs": [
        {
          "internalType": "bool",
          "name": "",
          "type": "bool"
        }
      ],
      "stateMutability": "nonpayable",
      "type": "function"
    },
    {
      "inputs": [
        {
          "internalType": "address",
          "name": "newOwner",
          "type": "address"
        }
      ],
      "name": "transferOwnership",
      "outputs": [],
      "stateMutability": "nonpayable",
      "type": "function"
    }
  ],
  "bytecode": "0x60806040523480156200001157600080fd5b50604080518082018252600a81526922b1b2b6362a37b5b2b760b11b6020808301918252835180850190945260058452641150d1531360da1b9084015281519192916200006191600391620001ff565b50805162000077906004906020840190620001ff565b505050620000946200008e620000c160201b60201c565b620000c5565b620000bb33620000a76012600a62000309565b620000b590612710620003d4565b62000117565b62000449565b3390565b600580546001600160a01b038381166001600160a01b0319831681179093556040519116919082907f8be0079c531659141344cd1fd0a4f28419497f9722a3daafe3b4186f6b6457e090600090a35050565b6001600160a01b038216620001725760405162461bcd60e51b815260206004820152601f60248201527f45524332303a206d696e7420746f20746865207a65726f206164647265737300604482015260640160405180910390fd5b8060026000828254620001869190620002a5565b90915550506001600160a01b03821660009081526020819052604081208054839290620001b5908490620002a5565b90915550506040518181526001600160a01b038316906000907fddf252ad1be2c89b69c2b068fc378daa952ba7f163c4a11628f55a4df523b3ef9060200160405180910390a35050565b8280546200020d90620003f6565b90600052602060002090601f0160209004810192826200023157600085556200027c565b82601f106200024c57805160ff19168380011785556200027c565b828001600101855582156200027c579182015b828111156200027c5782518255916020019190600101906200025f565b506200028a9291506200028e565b5090565b5b808211156200028a57600081556001016200028f565b60008219821115620002bb57620002bb62000433565b500190565b600181815b8085111562000301578160001904821115620002e557620002e562000433565b80851615620002f357918102915b93841c9390800290620002c5565b509250929050565b60006200031783836200031e565b9392505050565b6000826200032f57506001620003ce565b816200033e57506000620003ce565b8160018114620003575760028114620003625762000382565b6001915050620003ce565b60ff84111562000376576200037662000433565b50506001821b620003ce565b5060208310610133831016604e8410600b8410161715620003a7575081810a620003ce565b620003b38383620002c0565b8060001904821115620003ca57620003ca62000433565b0290505b92915050565b6000816000190483118215151615620003f157620003f162000433565b500290565b600181811c908216806200040b57607f821691505b602082108114156200042d57634e487b7160e01b600052602260045260246000fd5b50919050565b634e487b7160e01b600052601160045260246000fd5b610d1680620004596000396000f3fe608060405234801561001057600080fd5b50600436106100f55760003560e01c806370f38c2711610097578063a457c2d711610066578063a457c2d7146101eb578063a9059cbb146101fe578063dd62ed3e14610211578063f2fde38b1461024a57600080fd5b806370f38c27146101ab578063715018a6146101c05780638da5cb5b146101c857806395d89b41146101e357600080fd5b806323b872dd116100d357806323b872dd1461014d578063313ce56714610160578063395093511461016f57806370a082311461018257600080fd5b806306fdde03146100fa578063095ea7b31461011857806318160ddd1461013b575b600080fd5b61010261025d565b60405161010f9190610ae3565b60405180910390f35b61012b610126366004610aa0565b6102ef565b604051901515815260200161010f565b6002545b60405190815260200161010f565b61012b61015b366004610a64565b610309565b6040516012815260200161010f565b61012b61017d366004610aa0565b61032d565b61013f610190366004610a0f565b6001600160a01b031660009081526020819052604090205490565b6101be6101b9366004610aca565b61036c565b005b6101be6103c1565b6005546040516001600160a01b03909116815260200161010f565b6101026103f7565b61012b6101f9366004610aa0565b610406565b61012b61020c366004610aa0565b610498565b61013f61021f366004610a31565b6001600160a01b03918216600090815260016020908152604080832093909416825291909152205490565b6101be610258366004610a0f565b6104a6565b60606003805461026c90610c8f565b80601f016020809104026020016040519081016040528092919081815260200182805461029890610c8f565b80156102e55780601f106102ba576101008083540402835291602001916102e5565b820191906000526020600020905b8154815290600101906020018083116102c857829003601f168201915b5050505050905090565b6000336102fd81858561053e565b60019150505b92915050565b600033610317858285610662565b6103228585856106f4565b506001949350505050565b3360008181526001602090815260408083206001600160a01b03871684529091528120549091906102fd9082908690610367908790610b6d565b61053e565b6005546001600160a01b0316331461039f5760405162461bcd60e51b815260040161039690610b38565b60405180910390fd5b6103be336103af6012600a610bc8565b6103b99084610c70565b6108c2565b50565b6005546001600160a01b031633146103eb5760405162461bcd60e51b815260040161039690610b38565b6103f560006109a1565b565b60606004805461026c90610c8f565b3360008181526001602090815260408083206001600160a01b03871684529091528120549091908381101561048b5760405162461bcd60e51b815260206004820152602560248201527f45524332303a2064656372656173656420616c6c6f77616e63652062656c6f77604482015264207a65726f60d81b6064820152608401610396565b610322828686840361053e565b6000336102fd8185856106f4565b6005546001600160a01b031633146104d05760405162461bcd60e51b815260040161039690610b38565b6001600160a01b0381166105355760405162461bcd60e51b815260206004820152602660248201527f4f776e61626c653a206e6577206f776e657220697320746865207a65726f206160448201526564647265737360d01b6064820152608401610396565b6103be816109a1565b6001600160a01b0383166105a05760405162461bcd60e51b8152602060048201526024808201527f45524332303a20617070726f76652066726f6d20746865207a65726f206164646044820152637265737360e01b6064820152608401610396565b6001600160a01b0382166106015760405162461bcd60e51b815260206004820152602260248201527f45524332303a20617070726f766520746f20746865207a65726f206164647265604482015261737360f01b6064820152608401610396565b6001600160a01b0383811660008181526001602090815260408083209487168084529482529182902085905590518481527f8c5be1e5ebec7d5bd14f71427d1e84f3dd0314c0f7b2291e5b200ac8c7c3b925910160405180910390a3505050565b6001600160a01b0383811660009081526001602090815260408083209386168352929052205460001981146106ee57818110156106e15760405162461bcd60e51b815260206004820152601d60248201527f45524332303a20696e73756666696369656e7420616c6c6f77616e63650000006044820152606401610396565b6106ee848484840361053e565b50505050565b6001600160a01b0383166107585760405162461bcd60e51b815260206004820152602560248201527f45524332303a207472616e736665722066726f6d20746865207a65726f206164604482015264647265737360d81b6064820152608401610396565b6001600160a01b0382166107ba5760405162461bcd60e51b815260206004820152602360248201527f45524332303a207472616e7366657220746f20746865207a65726f206164647260448201526265737360e81b6064820152608401610396565b6001600160a01b038316600090815260208190526040902054818110156108325760405162461bcd60e51b815260206004820152602660248201527f45524332303a207472616e7366657220616d6f756e7420657863656564732062604482015265616c616e636560d01b6064820152608401610396565b6001600160a01b03808516600090815260208190526040808220858503905591851681529081208054849290610869908490610b6d565b92505081905550826001600160a01b0316846001600160a01b03167fddf252ad1be2c89b69c2b068fc378daa952ba7f163c4a11628f55a4df523b3ef846040516108b591815260200190565b60405180910390a36106ee565b6001600160a01b0382166109185760405162461bcd60e51b815260206004820152601f60248201527f45524332303a206d696e7420746f20746865207a65726f2061646472657373006044820152606401610396565b806002600082825461092a9190610b6d565b90915550506001600160a01b03821660009081526020819052604081208054839290610957908490610b6d565b90915550506040518181526001600160a01b038316906000907fddf252ad1be2c89b69c2b068fc378daa952ba7f163c4a11628f55a4df523b3ef9060200160405180910390a35050565b600580546001600160a01b038381166001600160a01b0319831681179093556040519116919082907f8be0079c531659141344cd1fd0a4f28419497f9722a3daafe3b4186f6b6457e090600090a35050565b80356001600160a01b0381168114610a0a57600080fd5b919050565b600060208284031215610a2157600080fd5b610a2a826109f3565b9392505050565b60008060408385031215610a4457600080fd5b610a4d836109f3565b9150610a5b602084016109f3565b90509250929050565b600080600060608486031215610a7957600080fd5b610a82846109f3565b9250610a90602085016109f3565b9150604084013590509250925092565b60008060408385031215610ab357600080fd5b610abc836109f3565b946020939093013593505050565b600060208284031215610adc57600080fd5b5035919050565b600060208083528351808285015260005b81811015610b1057858101830151858201604001528201610af4565b81811115610b22576000604083870101525b50601f01601f1916929092016040019392505050565b6020808252818101527f4f776e61626c653a2063616c6c6572206973206e6f7420746865206f776e6572604082015260600190565b60008219821115610b8057610b80610cca565b500190565b600181815b80851115610bc0578160001904821115610ba657610ba6610cca565b80851615610bb357918102915b93841c9390800290610b8a565b509250929050565b6000610a2a8383600082610bde57506001610303565b81610beb57506000610303565b8160018114610c015760028114610c0b57610c27565b6001915050610303565b60ff841115610c1c57610c1c610cca565b50506001821b610303565b5060208310610133831016604e8410600b8410161715610c4a575081810a610303565b610c548383610b85565b8060001904821115610c6857610c68610cca565b029392505050565b6000816000190483118215151615610c8a57610c8a610cca565b500290565b600181811c90821680610ca357607f821691505b60208210811415610cc457634e487b7160e01b600052602260045260246000fd5b50919050565b634e487b7160e01b600052601160045260246000fdfea2646970667358221220c41841c9f1dde54ef59ad555ad0fd6dbbbedc195e3fe5f200608a4d94f5d283464736f6c63430008070033",
  "linkReferences": {},
  "deployedLinkReferences": {}
}