{
  "_format": "hh-sol-artifact-1",
  "contractName": "EcellNFTs",
  "sourceName": "contracts/EcellNFTs.sol",
  "abi": [
    {
      "inputs": [
        {
          "internalType": "string",
          "name": "baseURI",
          "type": "string"
        }
      ],
      "stateMutability": "nonpayable",
      "type": "constructor"
    },
    {
      "anonymous": false,
      "inputs": [
        {
          "indexed": true,
          "internalType": "address",
          "name": "owner",
          "type": "address"
        },
        {
          "indexed": true,
          "internalType": "address",
          "name": "approved",
          "type": "address"
        },
        {
          "indexed": true,
          "internalType": "uint256",
          "name": "tokenId",
          "type": "uint256"
        }
      ],
      "name": "Approval",
      "type": "event"
    },
    {
      "anonymous": false,
      "inputs": [
        {
          "indexed": true,
          "internalType": "address",
          "name": "owner",
          "type": "address"
        },
        {
          "indexed": true,
          "internalType": "address",
          "name": "operator",
          "type": "address"
        },
        {
          "indexed": false,
          "internalType": "bool",
          "name": "approved",
          "type": "bool"
        }
      ],
      "name": "ApprovalForAll",
      "type": "event"
    },
    {
      "anonymous": false,
      "inputs": [
        {
          "indexed": true,
          "internalType": "address",
          "name": "previousOwner",
          "type": "address"
        },
        {
          "indexed": true,
          "internalType": "address",
          "name": "newOwner",
          "type": "address"
        }
      ],
      "name": "OwnershipTransferred",
      "type": "event"
    },
    {
      "anonymous": false,
      "inputs": [
        {
          "indexed": true,
          "internalType": "address",
          "name": "from",
          "type": "address"
        },
        {
          "indexed": true,
          "internalType": "address",
          "name": "to",
          "type": "address"
        },
        {
          "indexed": true,
          "internalType": "uint256",
          "name": "tokenId",
          "type": "uint256"
        }
      ],
      "name": "Transfer",
      "type": "event"
    },
    {
      "inputs": [],
      "name": "MAX_PER_MINT",
      "outputs": [
        {
          "internalType": "uint256",
          "name": "",
          "type": "uint256"
        }
      ],
      "stateMutability": "view",
      "type": "function"
    },
    {
      "inputs": [],
      "name": "MAX_SUPPLY",
      "outputs": [
        {
          "internalType": "uint256",
          "name": "",
          "type": "uint256"
        }
      ],
      "stateMutability": "view",
      "type": "function"
    },
    {
      "inputs": [],
      "name": "PRICE",
      "outputs": [
        {
          "internalType": "uint256",
          "name": "",
          "type": "uint256"
        }
      ],
      "stateMutability": "view",
      "type": "function"
    },
    {
      "inputs": [
        {
          "internalType": "address",
          "name": "to",
          "type": "address"
        },
        {
          "internalType": "uint256",
          "name": "tokenId",
          "type": "uint256"
        }
      ],
      "name": "approve",
      "outputs": [],
      "stateMutability": "nonpayable",
      "type": "function"
    },
    {
      "inputs": [
        {
          "internalType": "address",
          "name": "owner",
          "type": "address"
        }
      ],
      "name": "balanceOf",
      "outputs": [
        {
          "internalType": "uint256",
          "name": "",
          "type": "uint256"
        }
      ],
      "stateMutability": "view",
      "type": "function"
    },
    {
      "inputs": [],
      "name": "baseTokenURI",
      "outputs": [
        {
          "internalType": "string",
          "name": "",
          "type": "string"
        }
      ],
      "stateMutability": "view",
      "type": "function"
    },
    {
      "inputs": [
        {
          "internalType": "uint256",
          "name": "tokenId",
          "type": "uint256"
        }
      ],
      "name": "getApproved",
      "outputs": [
        {
          "internalType": "address",
          "name": "",
          "type": "address"
        }
      ],
      "stateMutability": "view",
      "type": "function"
    },
    {
      "inputs": [
        {
          "internalType": "address",
          "name": "owner",
          "type": "address"
        },
        {
          "internalType": "address",
          "name": "operator",
          "type": "address"
        }
      ],
      "name": "isApprovedForAll",
      "outputs": [
        {
          "internalType": "bool",
          "name": "",
          "type": "bool"
        }
      ],
      "stateMutability": "view",
      "type": "function"
    },
    {
      "inputs": [
        {
          "internalType": "uint256",
          "name": "_count",
          "type": "uint256"
        }
      ],
      "name": "mintNFTs",
      "outputs": [],
      "stateMutability": "payable",
      "type": "function"
    },
    {
      "inputs": [],
      "name": "name",
      "outputs": [
        {
          "internalType": "string",
          "name": "",
          "type": "string"
        }
      ],
      "stateMutability": "view",
      "type": "function"
    },
    {
      "inputs": [],
      "name": "owner",
      "outputs": [
        {
          "internalType": "address",
          "name": "",
          "type": "address"
        }
      ],
      "stateMutability": "view",
      "type": "function"
    },
    {
      "inputs": [
        {
          "internalType": "uint256",
          "name": "tokenId",
          "type": "uint256"
        }
      ],
      "name": "ownerOf",
      "outputs": [
        {
          "internalType": "address",
          "name": "",
          "type": "address"
        }
      ],
      "stateMutability": "view",
      "type": "function"
    },
    {
      "inputs": [],
      "name": "renounceOwnership",
      "outputs": [],
      "stateMutability": "nonpayable",
      "type": "function"
    },
    {
      "inputs": [],
      "name": "reserveNFTs",
      "outputs": [],
      "stateMutability": "nonpayable",
      "type": "function"
    },
    {
      "inputs": [
        {
          "internalType": "address",
          "name": "from",
          "type": "address"
        },
        {
          "internalType": "address",
          "name": "to",
          "type": "address"
        },
        {
          "internalType": "uint256",
          "name": "tokenId",
          "type": "uint256"
        }
      ],
      "name": "safeTransferFrom",
      "outputs": [],
      "stateMutability": "nonpayable",
      "type": "function"
    },
    {
      "inputs": [
        {
          "internalType": "address",
          "name": "from",
          "type": "address"
        },
        {
          "internalType": "address",
          "name": "to",
          "type": "address"
        },
        {
          "internalType": "uint256",
          "name": "tokenId",
          "type": "uint256"
        },
        {
          "internalType": "bytes",
          "name": "_data",
          "type": "bytes"
        }
      ],
      "name": "safeTransferFrom",
      "outputs": [],
      "stateMutability": "nonpayable",
      "type": "function"
    },
    {
      "inputs": [
        {
          "internalType": "address",
          "name": "operator",
          "type": "address"
        },
        {
          "internalType": "bool",
          "name": "approved",
          "type": "bool"
        }
      ],
      "name": "setApprovalForAll",
      "outputs": [],
      "stateMutability": "nonpayable",
      "type": "function"
    },
    {
      "inputs": [
        {
          "internalType": "string",
          "name": "_baseTokenURI",
          "type": "string"
        }
      ],
      "name": "setBaseURI",
      "outputs": [],
      "stateMutability": "nonpayable",
      "type": "function"
    },
    {
      "inputs": [
        {
          "internalType": "bytes4",
          "name": "interfaceId",
          "type": "bytes4"
        }
      ],
      "name": "supportsInterface",
      "outputs": [
        {
          "internalType": "bool",
          "name": "",
          "type": "bool"
        }
      ],
      "stateMutability": "view",
      "type": "function"
    },
    {
      "inputs": [],
      "name": "symbol",
      "outputs": [
        {
          "internalType": "string",
          "name": "",
          "type": "string"
        }
      ],
      "stateMutability": "view",
      "type": "function"
    },
    {
      "inputs": [
        {
          "internalType": "uint256",
          "name": "index",
          "type": "uint256"
        }
      ],
      "name": "tokenByIndex",
      "outputs": [
        {
          "internalType": "uint256",
          "name": "",
          "type": "uint256"
        }
      ],
      "stateMutability": "view",
      "type": "function"
    },
    {
      "inputs": [
        {
          "internalType": "address",
          "name": "owner",
          "type": "address"
        },
        {
          "internalType": "uint256",
          "name": "index",
          "type": "uint256"
        }
      ],
      "name": "tokenOfOwnerByIndex",
      "outputs": [
        {
          "internalType": "uint256",
          "name": "",
          "type": "uint256"
        }
      ],
      "stateMutability": "view",
      "type": "function"
    },
    {
      "inputs": [
        {
          "internalType": "uint256",
          "name": "tokenId",
          "type": "uint256"
        }
      ],
      "name": "tokenURI",
      "outputs": [
        {
          "internalType": "string",
          "name": "",
          "type": "string"
        }
      ],
      "stateMutability": "view",
      "type": "function"
    },
    {
      "inputs": [
        {
          "internalType": "address",
          "name": "_owner",
          "type": "address"
        }
      ],
      "name": "tokensOfOwner",
      "outputs": [
        {
          "internalType": "uint256[]",
          "name": "",
          "type": "uint256[]"
        }
      ],
      "stateMutability": "view",
      "type": "function"
    },
    {
      "inputs": [],
      "name": "totalSupply",
      "outputs": [
        {
          "internalType": "uint256",
          "name": "",
          "type": "uint256"
        }
      ],
      "stateMutability": "view",
      "type": "function"
    },
    {
      "inputs": [
        {
          "internalType": "address",
          "name": "from",
          "type": "address"
        },
        {
          "internalType": "address",
          "name": "to",
          "type": "address"
        },
        {
          "internalType": "uint256",
          "name": "tokenId",
          "type": "uint256"
        }
      ],
      "name": "transferFrom",
      "outputs": [],
      "stateMutability": "nonpayable",
      "type": "function"
    },
    {
      "inputs": [
        {
          "internalType": "address",
          "name": "newOwner",
          "type": "address"
        }
      ],
      "name": "transferOwnership",
      "outputs": [],
      "stateMutability": "nonpayable",
      "type": "function"
    },
    {
      "inputs": [],
      "name": "withdraw",
      "outputs": [],
      "stateMutability": "payable",
      "type": "function"
    }
  ],
  "bytecode": "0x60806040523480156200001157600080fd5b50604051620025a4380380620025a4833981016040819052620000349162000240565b604080518082018252600f81526e4e465420436f6c6c65637469626c6560881b6020808301918252835180850190945260048452634e46544360e01b90840152815191929162000087916000916200019a565b5080516200009d9060019060208401906200019a565b505050620000ba620000b4620000cc60201b60201c565b620000d0565b620000c58162000122565b506200036f565b3390565b600a80546001600160a01b038381166001600160a01b0319831681179093556040519116919082907f8be0079c531659141344cd1fd0a4f28419497f9722a3daafe3b4186f6b6457e090600090a35050565b600a546001600160a01b03163314620001815760405162461bcd60e51b815260206004820181905260248201527f4f776e61626c653a2063616c6c6572206973206e6f7420746865206f776e6572604482015260640160405180910390fd5b80516200019690600c9060208401906200019a565b5050565b828054620001a8906200031c565b90600052602060002090601f016020900481019282620001cc576000855562000217565b82601f10620001e757805160ff191683800117855562000217565b8280016001018555821562000217579182015b8281111562000217578251825591602001919060010190620001fa565b506200022592915062000229565b5090565b5b808211156200022557600081556001016200022a565b600060208083850312156200025457600080fd5b82516001600160401b03808211156200026c57600080fd5b818501915085601f8301126200028157600080fd5b81518181111562000296576200029662000359565b604051601f8201601f19908116603f01168101908382118183101715620002c157620002c162000359565b816040528281528886848701011115620002da57600080fd5b600093505b82841015620002fe5784840186015181850187015292850192620002df565b82841115620003105760008684830101525b98975050505050505050565b600181811c908216806200033157607f821691505b602082108114156200035357634e487b7160e01b600052602260045260246000fd5b50919050565b634e487b7160e01b600052604160045260246000fd5b612225806200037f6000396000f3fe6080604052600436106101b75760003560e01c806355f804b3116100ec57806395d89b411161008a578063c87b56dd11610064578063c87b56dd14610494578063d547cfb7146104b4578063e985e9c5146104c9578063f2fde38b1461051257600080fd5b806395d89b411461043f578063a22cb46514610454578063b88d4fde1461047457600080fd5b8063715018a6116100c6578063715018a6146103ca5780638462151c146103df5780638d859f3e1461040c5780638da5cb5b1461042157600080fd5b806355f804b31461036a5780636352211e1461038a57806370a08231146103aa57600080fd5b806323b872dd116101595780633b4b1381116101335780633b4b13811461030f5780633ccfd60b1461032257806342842e0e1461032a5780634f6ccce71461034a57600080fd5b806323b872dd146102ba5780632f745c59146102da57806332cb6b0c146102fa57600080fd5b8063095ea7b311610195578063095ea7b31461024b57806309d42b301461026d578063144100c71461029057806318160ddd146102a557600080fd5b806301ffc9a7146101bc57806306fdde03146101f1578063081812fc14610213575b600080fd5b3480156101c857600080fd5b506101dc6101d7366004611e10565b610532565b60405190151581526020015b60405180910390f35b3480156101fd57600080fd5b5061020661055d565b6040516101e89190611f88565b34801561021f57600080fd5b5061023361022e366004611e93565b6105ef565b6040516001600160a01b0390911681526020016101e8565b34801561025757600080fd5b5061026b610266366004611de6565b610689565b005b34801561027957600080fd5b50610282600581565b6040519081526020016101e8565b34801561029c57600080fd5b5061026b61079f565b3480156102b157600080fd5b50600854610282565b3480156102c657600080fd5b5061026b6102d5366004611cf2565b61085a565b3480156102e657600080fd5b506102826102f5366004611de6565b61088b565b34801561030657600080fd5b50610282606481565b61026b61031d366004611e93565b610921565b61026b610a75565b34801561033657600080fd5b5061026b610345366004611cf2565b610b78565b34801561035657600080fd5b50610282610365366004611e93565b610b93565b34801561037657600080fd5b5061026b610385366004611e4a565b610c26565b34801561039657600080fd5b506102336103a5366004611e93565b610c63565b3480156103b657600080fd5b506102826103c5366004611ca4565b610cda565b3480156103d657600080fd5b5061026b610d61565b3480156103eb57600080fd5b506103ff6103fa366004611ca4565b610d97565b6040516101e89190611f44565b34801561041857600080fd5b50610282600281565b34801561042d57600080fd5b50600a546001600160a01b0316610233565b34801561044b57600080fd5b50610206610e39565b34801561046057600080fd5b5061026b61046f366004611daa565b610e48565b34801561048057600080fd5b5061026b61048f366004611d2e565b610e53565b3480156104a057600080fd5b506102066104af366004611e93565b610e8b565b3480156104c057600080fd5b50610206610f66565b3480156104d557600080fd5b506101dc6104e4366004611cbf565b6001600160a01b03918216600090815260056020908152604080832093909416825291909152205460ff1690565b34801561051e57600080fd5b5061026b61052d366004611ca4565b610ff4565b60006001600160e01b0319821663780e9d6360e01b148061055757506105578261108f565b92915050565b60606000805461056c90612101565b80601f016020809104026020016040519081016040528092919081815260200182805461059890612101565b80156105e55780601f106105ba576101008083540402835291602001916105e5565b820191906000526020600020905b8154815290600101906020018083116105c857829003601f168201915b5050505050905090565b6000818152600260205260408120546001600160a01b031661066d5760405162461bcd60e51b815260206004820152602c60248201527f4552433732313a20617070726f76656420717565727920666f72206e6f6e657860448201526b34b9ba32b73a103a37b5b2b760a11b60648201526084015b60405180910390fd5b506000908152600460205260409020546001600160a01b031690565b600061069482610c63565b9050806001600160a01b0316836001600160a01b031614156107025760405162461bcd60e51b815260206004820152602160248201527f4552433732313a20617070726f76616c20746f2063757272656e74206f776e656044820152603960f91b6064820152608401610664565b336001600160a01b038216148061071e575061071e81336104e4565b6107905760405162461bcd60e51b815260206004820152603860248201527f4552433732313a20617070726f76652063616c6c6572206973206e6f74206f7760448201527f6e6572206e6f7220617070726f76656420666f7220616c6c00000000000000006064820152608401610664565b61079a83836110df565b505050565b600a546001600160a01b031633146107c95760405162461bcd60e51b815260040161066490611fed565b60006107d4600b5490565b905060646107e382600a61114d565b106108305760405162461bcd60e51b815260206004820152601f60248201527f4e6f7420656e6f756768204e465473206c65667420746f2072657365727665006044820152606401610664565b60005b600a81101561085657610844611159565b8061084e8161213c565b915050610833565b5050565b610864338261117e565b6108805760405162461bcd60e51b815260040161066490612022565b61079a838383611275565b600061089683610cda565b82106108f85760405162461bcd60e51b815260206004820152602b60248201527f455243373231456e756d657261626c653a206f776e657220696e646578206f7560448201526a74206f6620626f756e647360a81b6064820152608401610664565b506001600160a01b03919091166000908152600660209081526040808320938352929052205490565b600061092c600b5490565b9050606461093a828461114d565b11156109805760405162461bcd60e51b81526020600482015260156024820152744e6f7420656e6f756768204e465473206c6566742160581b6044820152606401610664565b600082118015610991575060058211155b6109eb5760405162461bcd60e51b815260206004820152602560248201527f43616e6e6f74206d696e7420737065636966696564206e756d626572206f662060448201526427232a399760d91b6064820152608401610664565b6109f660028361141c565b341015610a505760405162461bcd60e51b815260206004820152602260248201527f4e6f7420656e6f75676820657468657220746f207075726368617365204e4654604482015261399760f11b6064820152608401610664565b60005b8281101561079a57610a63611159565b80610a6d8161213c565b915050610a53565b600a546001600160a01b03163314610a9f5760405162461bcd60e51b815260040161066490611fed565b4780610aed5760405162461bcd60e51b815260206004820152601960248201527f4e6f206574686572206c65667420746f207769746864726177000000000000006044820152606401610664565b604051600090339083908381818185875af1925050503d8060008114610b2f576040519150601f19603f3d011682016040523d82523d6000602084013e610b34565b606091505b50509050806108565760405162461bcd60e51b815260206004820152601060248201526f2a3930b739b332b9103330b4b632b21760811b6044820152606401610664565b61079a83838360405180602001604052806000815250610e53565b6000610b9e60085490565b8210610c015760405162461bcd60e51b815260206004820152602c60248201527f455243373231456e756d657261626c653a20676c6f62616c20696e646578206f60448201526b7574206f6620626f756e647360a01b6064820152608401610664565b60088281548110610c1457610c146121ad565b90600052602060002001549050919050565b600a546001600160a01b03163314610c505760405162461bcd60e51b815260040161066490611fed565b805161085690600c906020840190611b79565b6000818152600260205260408120546001600160a01b0316806105575760405162461bcd60e51b815260206004820152602960248201527f4552433732313a206f776e657220717565727920666f72206e6f6e657869737460448201526832b73a103a37b5b2b760b91b6064820152608401610664565b60006001600160a01b038216610d455760405162461bcd60e51b815260206004820152602a60248201527f4552433732313a2062616c616e636520717565727920666f7220746865207a65604482015269726f206164647265737360b01b6064820152608401610664565b506001600160a01b031660009081526003602052604090205490565b600a546001600160a01b03163314610d8b5760405162461bcd60e51b815260040161066490611fed565b610d956000611428565b565b60606000610da483610cda565b905060008167ffffffffffffffff811115610dc157610dc16121c3565b604051908082528060200260200182016040528015610dea578160200160208202803683370190505b50905060005b82811015610e3157610e02858261088b565b828281518110610e1457610e146121ad565b602090810291909101015280610e298161213c565b915050610df0565b509392505050565b60606001805461056c90612101565b61085633838361147a565b610e5d338361117e565b610e795760405162461bcd60e51b815260040161066490612022565b610e8584848484611549565b50505050565b6000818152600260205260409020546060906001600160a01b0316610f0a5760405162461bcd60e51b815260206004820152602f60248201527f4552433732314d657461646174613a2055524920717565727920666f72206e6f60448201526e3732bc34b9ba32b73a103a37b5b2b760891b6064820152608401610664565b6000610f1461157c565b90506000815111610f345760405180602001604052806000815250610f5f565b80610f3e8461158b565b604051602001610f4f929190611ed8565b6040516020818303038152906040525b9392505050565b600c8054610f7390612101565b80601f0160208091040260200160405190810160405280929190818152602001828054610f9f90612101565b8015610fec5780601f10610fc157610100808354040283529160200191610fec565b820191906000526020600020905b815481529060010190602001808311610fcf57829003601f168201915b505050505081565b600a546001600160a01b0316331461101e5760405162461bcd60e51b815260040161066490611fed565b6001600160a01b0381166110835760405162461bcd60e51b815260206004820152602660248201527f4f776e61626c653a206e6577206f776e657220697320746865207a65726f206160448201526564647265737360d01b6064820152608401610664565b61108c81611428565b50565b60006001600160e01b031982166380ac58cd60e01b14806110c057506001600160e01b03198216635b5e139f60e01b145b8061055757506301ffc9a760e01b6001600160e01b0319831614610557565b600081815260046020526040902080546001600160a01b0319166001600160a01b038416908117909155819061111482610c63565b6001600160a01b03167f8c5be1e5ebec7d5bd14f71427d1e84f3dd0314c0f7b2291e5b200ac8c7c3b92560405160405180910390a45050565b6000610f5f8284612073565b6000611164600b5490565b90506111703382611689565b61108c600b80546001019055565b6000818152600260205260408120546001600160a01b03166111f75760405162461bcd60e51b815260206004820152602c60248201527f4552433732313a206f70657261746f7220717565727920666f72206e6f6e657860448201526b34b9ba32b73a103a37b5b2b760a11b6064820152608401610664565b600061120283610c63565b9050806001600160a01b0316846001600160a01b0316148061123d5750836001600160a01b0316611232846105ef565b6001600160a01b0316145b8061126d57506001600160a01b0380821660009081526005602090815260408083209388168352929052205460ff165b949350505050565b826001600160a01b031661128882610c63565b6001600160a01b0316146112ec5760405162461bcd60e51b815260206004820152602560248201527f4552433732313a207472616e736665722066726f6d20696e636f72726563742060448201526437bbb732b960d91b6064820152608401610664565b6001600160a01b03821661134e5760405162461bcd60e51b8152602060048201526024808201527f4552433732313a207472616e7366657220746f20746865207a65726f206164646044820152637265737360e01b6064820152608401610664565b6113598383836116a3565b6113646000826110df565b6001600160a01b038316600090815260036020526040812080546001929061138d9084906120be565b90915550506001600160a01b03821660009081526003602052604081208054600192906113bb908490612073565b909155505060008181526002602052604080822080546001600160a01b0319166001600160a01b0386811691821790925591518493918716917fddf252ad1be2c89b69c2b068fc378daa952ba7f163c4a11628f55a4df523b3ef91a4505050565b6000610f5f828461209f565b600a80546001600160a01b038381166001600160a01b0319831681179093556040519116919082907f8be0079c531659141344cd1fd0a4f28419497f9722a3daafe3b4186f6b6457e090600090a35050565b816001600160a01b0316836001600160a01b031614156114dc5760405162461bcd60e51b815260206004820152601960248201527f4552433732313a20617070726f766520746f2063616c6c6572000000000000006044820152606401610664565b6001600160a01b03838116600081815260056020908152604080832094871680845294825291829020805460ff191686151590811790915591519182527f17307eab39ab6107e8899845ad3d59bd9653f200f220920489ca2b5937696c31910160405180910390a3505050565b611554848484611275565b6115608484848461175b565b610e855760405162461bcd60e51b815260040161066490611f9b565b6060600c805461056c90612101565b6060816115af5750506040805180820190915260018152600360fc1b602082015290565b8160005b81156115d957806115c38161213c565b91506115d29050600a8361208b565b91506115b3565b60008167ffffffffffffffff8111156115f4576115f46121c3565b6040519080825280601f01601f19166020018201604052801561161e576020820181803683370190505b5090505b841561126d576116336001836120be565b9150611640600a86612157565b61164b906030612073565b60f81b818381518110611660576116606121ad565b60200101906001600160f81b031916908160001a905350611682600a8661208b565b9450611622565b610856828260405180602001604052806000815250611868565b6001600160a01b0383166116fe576116f981600880546000838152600960205260408120829055600182018355919091527ff3f7a9fe364faab93b216da50a3214154f22a0a2b415b23a84c8169e8b636ee30155565b611721565b816001600160a01b0316836001600160a01b03161461172157611721838261189b565b6001600160a01b0382166117385761079a81611938565b826001600160a01b0316826001600160a01b03161461079a5761079a82826119e7565b60006001600160a01b0384163b1561185d57604051630a85bd0160e11b81526001600160a01b0385169063150b7a029061179f903390899088908890600401611f07565b602060405180830381600087803b1580156117b957600080fd5b505af19250505080156117e9575060408051601f3d908101601f191682019092526117e691810190611e2d565b60015b611843573d808015611817576040519150601f19603f3d011682016040523d82523d6000602084013e61181c565b606091505b50805161183b5760405162461bcd60e51b815260040161066490611f9b565b805181602001fd5b6001600160e01b031916630a85bd0160e11b14905061126d565b506001949350505050565b6118728383611a2b565b61187f600084848461175b565b61079a5760405162461bcd60e51b815260040161066490611f9b565b600060016118a884610cda565b6118b291906120be565b600083815260076020526040902054909150808214611905576001600160a01b03841660009081526006602090815260408083208584528252808320548484528184208190558352600790915290208190555b5060009182526007602090815260408084208490556001600160a01b039094168352600681528383209183525290812055565b60085460009061194a906001906120be565b60008381526009602052604081205460088054939450909284908110611972576119726121ad565b906000526020600020015490508060088381548110611993576119936121ad565b60009182526020808320909101929092558281526009909152604080822084905585825281205560088054806119cb576119cb612197565b6001900381819060005260206000200160009055905550505050565b60006119f283610cda565b6001600160a01b039093166000908152600660209081526040808320868452825280832085905593825260079052919091209190915550565b6001600160a01b038216611a815760405162461bcd60e51b815260206004820181905260248201527f4552433732313a206d696e7420746f20746865207a65726f20616464726573736044820152606401610664565b6000818152600260205260409020546001600160a01b031615611ae65760405162461bcd60e51b815260206004820152601c60248201527f4552433732313a20746f6b656e20616c7265616479206d696e746564000000006044820152606401610664565b611af2600083836116a3565b6001600160a01b0382166000908152600360205260408120805460019290611b1b908490612073565b909155505060008181526002602052604080822080546001600160a01b0319166001600160a01b03861690811790915590518392907fddf252ad1be2c89b69c2b068fc378daa952ba7f163c4a11628f55a4df523b3ef908290a45050565b828054611b8590612101565b90600052602060002090601f016020900481019282611ba75760008555611bed565b82601f10611bc057805160ff1916838001178555611bed565b82800160010185558215611bed579182015b82811115611bed578251825591602001919060010190611bd2565b50611bf9929150611bfd565b5090565b5b80821115611bf95760008155600101611bfe565b600067ffffffffffffffff80841115611c2d57611c2d6121c3565b604051601f8501601f19908116603f01168101908282118183101715611c5557611c556121c3565b81604052809350858152868686011115611c6e57600080fd5b858560208301376000602087830101525050509392505050565b80356001600160a01b0381168114611c9f57600080fd5b919050565b600060208284031215611cb657600080fd5b610f5f82611c88565b60008060408385031215611cd257600080fd5b611cdb83611c88565b9150611ce960208401611c88565b90509250929050565b600080600060608486031215611d0757600080fd5b611d1084611c88565b9250611d1e60208501611c88565b9150604084013590509250925092565b60008060008060808587031215611d4457600080fd5b611d4d85611c88565b9350611d5b60208601611c88565b925060408501359150606085013567ffffffffffffffff811115611d7e57600080fd5b8501601f81018713611d8f57600080fd5b611d9e87823560208401611c12565b91505092959194509250565b60008060408385031215611dbd57600080fd5b611dc683611c88565b915060208301358015158114611ddb57600080fd5b809150509250929050565b60008060408385031215611df957600080fd5b611e0283611c88565b946020939093013593505050565b600060208284031215611e2257600080fd5b8135610f5f816121d9565b600060208284031215611e3f57600080fd5b8151610f5f816121d9565b600060208284031215611e5c57600080fd5b813567ffffffffffffffff811115611e7357600080fd5b8201601f81018413611e8457600080fd5b61126d84823560208401611c12565b600060208284031215611ea557600080fd5b5035919050565b60008151808452611ec48160208601602086016120d5565b601f01601f19169290920160200192915050565b60008351611eea8184602088016120d5565b835190830190611efe8183602088016120d5565b01949350505050565b6001600160a01b0385811682528416602082015260408101839052608060608201819052600090611f3a90830184611eac565b9695505050505050565b6020808252825182820181905260009190848201906040850190845b81811015611f7c57835183529284019291840191600101611f60565b50909695505050505050565b602081526000610f5f6020830184611eac565b60208082526032908201527f4552433732313a207472616e7366657220746f206e6f6e20455243373231526560408201527131b2b4bb32b91034b6b83632b6b2b73a32b960711b606082015260800190565b6020808252818101527f4f776e61626c653a2063616c6c6572206973206e6f7420746865206f776e6572604082015260600190565b60208082526031908201527f4552433732313a207472616e736665722063616c6c6572206973206e6f74206f6040820152701ddb995c881b9bdc88185c1c1c9bdd9959607a1b606082015260800190565b600082198211156120865761208661216b565b500190565b60008261209a5761209a612181565b500490565b60008160001904831182151516156120b9576120b961216b565b500290565b6000828210156120d0576120d061216b565b500390565b60005b838110156120f05781810151838201526020016120d8565b83811115610e855750506000910152565b600181811c9082168061211557607f821691505b6020821081141561213657634e487b7160e01b600052602260045260246000fd5b50919050565b60006000198214156121505761215061216b565b5060010190565b60008261216657612166612181565b500690565b634e487b7160e01b600052601160045260246000fd5b634e487b7160e01b600052601260045260246000fd5b634e487b7160e01b600052603160045260246000fd5b634e487b7160e01b600052603260045260246000fd5b634e487b7160e01b600052604160045260246000fd5b6001600160e01b03198116811461108c57600080fdfea2646970667358221220914f7ca0aa4a97747ccbeacf77067e1579ead390d4f3a22f27e8b4c4828e2c9c64736f6c63430008070033",
  "linkReferences": {},
  "deployedLinkReferences": {}
}