{
  "_format": "hh-sol-artifact-1",
  "contractName": "EcellMarketplace",
  "sourceName": "contracts/EcellMarketplace.sol",
  "abi": [
    {
      "inputs": [],
      "stateMutability": "nonpayable",
      "type": "constructor"
    },
    {
      "anonymous": false,
      "inputs": [
        {
          "indexed": true,
          "internalType": "address",
          "name": "owner",
          "type": "address"
        },
        {
          "indexed": true,
          "internalType": "address",
          "name": "approved",
          "type": "address"
        },
        {
          "indexed": true,
          "internalType": "uint256",
          "name": "tokenId",
          "type": "uint256"
        }
      ],
      "name": "Approval",
      "type": "event"
    },
    {
      "anonymous": false,
      "inputs": [
        {
          "indexed": true,
          "internalType": "address",
          "name": "owner",
          "type": "address"
        },
        {
          "indexed": true,
          "internalType": "address",
          "name": "operator",
          "type": "address"
        },
        {
          "indexed": false,
          "internalType": "bool",
          "name": "approved",
          "type": "bool"
        }
      ],
      "name": "ApprovalForAll",
      "type": "event"
    },
    {
      "anonymous": false,
      "inputs": [
        {
          "indexed": true,
          "internalType": "uint256",
          "name": "tokenId",
          "type": "uint256"
        },
        {
          "indexed": false,
          "internalType": "address",
          "name": "seller",
          "type": "address"
        },
        {
          "indexed": false,
          "internalType": "address",
          "name": "owner",
          "type": "address"
        },
        {
          "indexed": false,
          "internalType": "uint256",
          "name": "price",
          "type": "uint256"
        },
        {
          "indexed": false,
          "internalType": "bool",
          "name": "sold",
          "type": "bool"
        }
      ],
      "name": "MarketItemCreated",
      "type": "event"
    },
    {
      "anonymous": false,
      "inputs": [
        {
          "indexed": true,
          "internalType": "address",
          "name": "from",
          "type": "address"
        },
        {
          "indexed": true,
          "internalType": "address",
          "name": "to",
          "type": "address"
        },
        {
          "indexed": true,
          "internalType": "uint256",
          "name": "tokenId",
          "type": "uint256"
        }
      ],
      "name": "Transfer",
      "type": "event"
    },
    {
      "inputs": [
        {
          "internalType": "address",
          "name": "to",
          "type": "address"
        },
        {
          "internalType": "uint256",
          "name": "tokenId",
          "type": "uint256"
        }
      ],
      "name": "approve",
      "outputs": [],
      "stateMutability": "nonpayable",
      "type": "function"
    },
    {
      "inputs": [
        {
          "internalType": "address",
          "name": "owner",
          "type": "address"
        }
      ],
      "name": "balanceOf",
      "outputs": [
        {
          "internalType": "uint256",
          "name": "",
          "type": "uint256"
        }
      ],
      "stateMutability": "view",
      "type": "function"
    },
    {
      "inputs": [
        {
          "internalType": "uint256",
          "name": "tokenId",
          "type": "uint256"
        }
      ],
      "name": "createMarketSale",
      "outputs": [],
      "stateMutability": "payable",
      "type": "function"
    },
    {
      "inputs": [
        {
          "internalType": "string",
          "name": "tokenURI",
          "type": "string"
        },
        {
          "internalType": "uint256",
          "name": "price",
          "type": "uint256"
        }
      ],
      "name": "createToken",
      "outputs": [
        {
          "internalType": "uint256",
          "name": "",
          "type": "uint256"
        }
      ],
      "stateMutability": "payable",
      "type": "function"
    },
    {
      "inputs": [],
      "name": "fetchItemsListed",
      "outputs": [
        {
          "components": [
            {
              "internalType": "uint256",
              "name": "tokenId",
              "type": "uint256"
            },
            {
              "internalType": "address payable",
              "name": "seller",
              "type": "address"
            },
            {
              "internalType": "address payable",
              "name": "owner",
              "type": "address"
            },
            {
              "internalType": "uint256",
              "name": "price",
              "type": "uint256"
            },
            {
              "internalType": "bool",
              "name": "sold",
              "type": "bool"
            }
          ],
          "internalType": "struct EcellMarketplace.MarketItem[]",
          "name": "",
          "type": "tuple[]"
        }
      ],
      "stateMutability": "view",
      "type": "function"
    },
    {
      "inputs": [],
      "name": "fetchMarketItems",
      "outputs": [
        {
          "components": [
            {
              "internalType": "uint256",
              "name": "tokenId",
              "type": "uint256"
            },
            {
              "internalType": "address payable",
              "name": "seller",
              "type": "address"
            },
            {
              "internalType": "address payable",
              "name": "owner",
              "type": "address"
            },
            {
              "internalType": "uint256",
              "name": "price",
              "type": "uint256"
            },
            {
              "internalType": "bool",
              "name": "sold",
              "type": "bool"
            }
          ],
          "internalType": "struct EcellMarketplace.MarketItem[]",
          "name": "",
          "type": "tuple[]"
        }
      ],
      "stateMutability": "view",
      "type": "function"
    },
    {
      "inputs": [],
      "name": "fetchMyNFTs",
      "outputs": [
        {
          "components": [
            {
              "internalType": "uint256",
              "name": "tokenId",
              "type": "uint256"
            },
            {
              "internalType": "address payable",
              "name": "seller",
              "type": "address"
            },
            {
              "internalType": "address payable",
              "name": "owner",
              "type": "address"
            },
            {
              "internalType": "uint256",
              "name": "price",
              "type": "uint256"
            },
            {
              "internalType": "bool",
              "name": "sold",
              "type": "bool"
            }
          ],
          "internalType": "struct EcellMarketplace.MarketItem[]",
          "name": "",
          "type": "tuple[]"
        }
      ],
      "stateMutability": "view",
      "type": "function"
    },
    {
      "inputs": [
        {
          "internalType": "uint256",
          "name": "tokenId",
          "type": "uint256"
        }
      ],
      "name": "getApproved",
      "outputs": [
        {
          "internalType": "address",
          "name": "",
          "type": "address"
        }
      ],
      "stateMutability": "view",
      "type": "function"
    },
    {
      "inputs": [],
      "name": "getListingPrice",
      "outputs": [
        {
          "internalType": "uint256",
          "name": "",
          "type": "uint256"
        }
      ],
      "stateMutability": "view",
      "type": "function"
    },
    {
      "inputs": [
        {
          "internalType": "address",
          "name": "owner",
          "type": "address"
        },
        {
          "internalType": "address",
          "name": "operator",
          "type": "address"
        }
      ],
      "name": "isApprovedForAll",
      "outputs": [
        {
          "internalType": "bool",
          "name": "",
          "type": "bool"
        }
      ],
      "stateMutability": "view",
      "type": "function"
    },
    {
      "inputs": [],
      "name": "name",
      "outputs": [
        {
          "internalType": "string",
          "name": "",
          "type": "string"
        }
      ],
      "stateMutability": "view",
      "type": "function"
    },
    {
      "inputs": [
        {
          "internalType": "uint256",
          "name": "tokenId",
          "type": "uint256"
        }
      ],
      "name": "ownerOf",
      "outputs": [
        {
          "internalType": "address",
          "name": "",
          "type": "address"
        }
      ],
      "stateMutability": "view",
      "type": "function"
    },
    {
      "inputs": [
        {
          "internalType": "address",
          "name": "from",
          "type": "address"
        },
        {
          "internalType": "address",
          "name": "to",
          "type": "address"
        },
        {
          "internalType": "uint256",
          "name": "tokenId",
          "type": "uint256"
        }
      ],
      "name": "safeTransferFrom",
      "outputs": [],
      "stateMutability": "nonpayable",
      "type": "function"
    },
    {
      "inputs": [
        {
          "internalType": "address",
          "name": "from",
          "type": "address"
        },
        {
          "internalType": "address",
          "name": "to",
          "type": "address"
        },
        {
          "internalType": "uint256",
          "name": "tokenId",
          "type": "uint256"
        },
        {
          "internalType": "bytes",
          "name": "data",
          "type": "bytes"
        }
      ],
      "name": "safeTransferFrom",
      "outputs": [],
      "stateMutability": "nonpayable",
      "type": "function"
    },
    {
      "inputs": [
        {
          "internalType": "address",
          "name": "operator",
          "type": "address"
        },
        {
          "internalType": "bool",
          "name": "approved",
          "type": "bool"
        }
      ],
      "name": "setApprovalForAll",
      "outputs": [],
      "stateMutability": "nonpayable",
      "type": "function"
    },
    {
      "inputs": [
        {
          "internalType": "bytes4",
          "name": "interfaceId",
          "type": "bytes4"
        }
      ],
      "name": "supportsInterface",
      "outputs": [
        {
          "internalType": "bool",
          "name": "",
          "type": "bool"
        }
      ],
      "stateMutability": "view",
      "type": "function"
    },
    {
      "inputs": [],
      "name": "symbol",
      "outputs": [
        {
          "internalType": "string",
          "name": "",
          "type": "string"
        }
      ],
      "stateMutability": "view",
      "type": "function"
    },
    {
      "inputs": [
        {
          "internalType": "uint256",
          "name": "tokenId",
          "type": "uint256"
        }
      ],
      "name": "tokenURI",
      "outputs": [
        {
          "internalType": "string",
          "name": "",
          "type": "string"
        }
      ],
      "stateMutability": "view",
      "type": "function"
    },
    {
      "inputs": [
        {
          "internalType": "address",
          "name": "from",
          "type": "address"
        },
        {
          "internalType": "address",
          "name": "to",
          "type": "address"
        },
        {
          "internalType": "uint256",
          "name": "tokenId",
          "type": "uint256"
        }
      ],
      "name": "transferFrom",
      "outputs": [],
      "stateMutability": "nonpayable",
      "type": "function"
    },
    {
      "inputs": [
        {
          "internalType": "uint256",
          "name": "_listingPrice",
          "type": "uint256"
        }
      ],
      "name": "updateListingPrice",
      "outputs": [],
      "stateMutability": "payable",
      "type": "function"
    }
  ],
  "bytecode": "0x60806040526658d15e176280006009553480156200001c57600080fd5b50604080518082018252601081526f4d657461766572736520546f6b656e7360801b6020808301918252835180850190945260048452631351551560e21b9084015281519192916200007191600091620000a2565b50805162000087906001906020840190620000a2565b5050600a80546001600160a01b031916331790555062000185565b828054620000b09062000148565b90600052602060002090601f016020900481019282620000d457600085556200011f565b82601f10620000ef57805160ff19168380011785556200011f565b828001600101855582156200011f579182015b828111156200011f57825182559160200191906001019062000102565b506200012d92915062000131565b5090565b5b808211156200012d576000815560010162000132565b600181811c908216806200015d57607f821691505b602082108114156200017f57634e487b7160e01b600052602260045260246000fd5b50919050565b61203880620001956000396000f3fe60806040526004361061011f5760003560e01c80636352211e116100a0578063ae677aa311610064578063ae677aa314610308578063b88d4fde1461031b578063be9af5361461033b578063c87b56dd1461034e578063e985e9c51461036e57600080fd5b80636352211e1461028057806370a08231146102a057806372b3b620146102c057806395d89b41146102d3578063a22cb465146102e857600080fd5b806312e85585116100e757806312e85585146101f7578063202e37401461021657806323b872dd1461022b57806342842e0e1461024b57806345f8fa801461026b57600080fd5b806301ffc9a71461012457806306fdde0314610159578063081812fc1461017b578063095ea7b3146101b35780630f08efe0146101d5575b600080fd5b34801561013057600080fd5b5061014461013f366004611c48565b6103b7565b60405190151581526020015b60405180910390f35b34801561016557600080fd5b5061016e610409565b6040516101509190611e08565b34801561018757600080fd5b5061019b610196366004611cdb565b61049b565b6040516001600160a01b039091168152602001610150565b3480156101bf57600080fd5b506101d36101ce366004611c1e565b6104c2565b005b3480156101e157600080fd5b506101ea6105dd565b6040516101509190611d8c565b34801561020357600080fd5b506009545b604051908152602001610150565b34801561022257600080fd5b506101ea610775565b34801561023757600080fd5b506101d3610246366004611b2a565b61094b565b34801561025757600080fd5b506101d3610266366004611b2a565b61097c565b34801561027757600080fd5b506101ea610997565b34801561028c57600080fd5b5061019b61029b366004611cdb565b610b6d565b3480156102ac57600080fd5b506102086102bb366004611adc565b610bcd565b6102086102ce366004611c82565b610c53565b3480156102df57600080fd5b5061016e610c95565b3480156102f457600080fd5b506101d3610303366004611be2565b610ca4565b6101d3610316366004611cdb565b610cb3565b34801561032757600080fd5b506101d3610336366004611b66565b610d2b565b6101d3610349366004611cdb565b610d63565b34801561035a57600080fd5b5061016e610369366004611cdb565b610ec8565b34801561037a57600080fd5b50610144610389366004611af7565b6001600160a01b03918216600090815260056020908152604080832093909416825291909152205460ff1690565b60006001600160e01b031982166380ac58cd60e01b14806103e857506001600160e01b03198216635b5e139f60e01b145b8061040357506301ffc9a760e01b6001600160e01b03198316145b92915050565b60606000805461041890611f2a565b80601f016020809104026020016040519081016040528092919081815260200182805461044490611f2a565b80156104915780601f1061046657610100808354040283529160200191610491565b820191906000526020600020905b81548152906001019060200180831161047457829003601f168201915b5050505050905090565b60006104a682610fd9565b506000908152600460205260409020546001600160a01b031690565b60006104cd82610b6d565b9050806001600160a01b0316836001600160a01b031614156105405760405162461bcd60e51b815260206004820152602160248201527f4552433732313a20617070726f76616c20746f2063757272656e74206f776e656044820152603960f91b60648201526084015b60405180910390fd5b336001600160a01b038216148061055c575061055c8133610389565b6105ce5760405162461bcd60e51b815260206004820152603e60248201527f4552433732313a20617070726f76652063616c6c6572206973206e6f7420746f60448201527f6b656e206f776e6572206e6f7220617070726f76656420666f7220616c6c00006064820152608401610537565b6105d8838361103b565b505050565b606060006105ea60075490565b905060006105f760085490565b6007546106049190611ee7565b90506000808267ffffffffffffffff81111561062257610622611fd6565b60405190808252806020026020018201604052801561067b57816020015b6040805160a0810182526000808252602080830182905292820181905260608201819052608082015282526000199092019101816106405790505b50905060005b8481101561076c5730600b6000610699846001611ebb565b81526020810191909152604001600020600201546001600160a01b0316141561075a5760006106c9826001611ebb565b6000818152600b6020908152604091829020825160a0810184528154815260018201546001600160a01b039081169382019390935260028201549092169282019290925260038201546060820152600482015460ff16151560808201528551929350909185908790811061073f5761073f611fc0565b6020908102919091010152610755600186611ebb565b945050505b8061076481611f65565b915050610681565b50949350505050565b6060600061078260075490565b905060008060005b838110156107e55733600b60006107a2846001611ebb565b81526020810191909152604001600020600201546001600160a01b031614156107d3576107d0600184611ebb565b92505b806107dd81611f65565b91505061078a565b5060008267ffffffffffffffff81111561080157610801611fd6565b60405190808252806020026020018201604052801561085a57816020015b6040805160a08101825260008082526020808301829052928201819052606082018190526080820152825260001990920191018161081f5790505b50905060005b8481101561076c5733600b6000610878846001611ebb565b81526020810191909152604001600020600201546001600160a01b031614156109395760006108a8826001611ebb565b6000818152600b6020908152604091829020825160a0810184528154815260018201546001600160a01b039081169382019390935260028201549092169282019290925260038201546060820152600482015460ff16151560808201528551929350909185908790811061091e5761091e611fc0565b6020908102919091010152610934600186611ebb565b945050505b8061094381611f65565b915050610860565b61095533826110a9565b6109715760405162461bcd60e51b815260040161053790611e6d565b6105d8838383611127565b6105d883838360405180602001604052806000815250610d2b565b606060006109a460075490565b905060008060005b83811015610a075733600b60006109c4846001611ebb565b81526020810191909152604001600020600101546001600160a01b031614156109f5576109f2600184611ebb565b92505b806109ff81611f65565b9150506109ac565b5060008267ffffffffffffffff811115610a2357610a23611fd6565b604051908082528060200260200182016040528015610a7c57816020015b6040805160a081018252600080825260208083018290529282018190526060820181905260808201528252600019909201910181610a415790505b50905060005b8481101561076c5733600b6000610a9a846001611ebb565b81526020810191909152604001600020600101546001600160a01b03161415610b5b576000610aca826001611ebb565b6000818152600b6020908152604091829020825160a0810184528154815260018201546001600160a01b039081169382019390935260028201549092169282019290925260038201546060820152600482015460ff161515608082015285519293509091859087908110610b4057610b40611fc0565b6020908102919091010152610b56600186611ebb565b945050505b80610b6581611f65565b915050610a82565b6000818152600260205260408120546001600160a01b0316806104035760405162461bcd60e51b8152602060048201526018602482015277115490cdcc8c4e881a5b9d985b1a59081d1bdad95b88125160421b6044820152606401610537565b60006001600160a01b038216610c375760405162461bcd60e51b815260206004820152602960248201527f4552433732313a2061646472657373207a65726f206973206e6f7420612076616044820152683634b21037bbb732b960b91b6064820152608401610537565b506001600160a01b031660009081526003602052604090205490565b6000610c63600780546001019055565b6000610c6e60075490565b9050610c7a33826112c3565b610c848185611405565b610c8e818461149f565b9392505050565b60606001805461041890611f2a565b610caf338383611631565b5050565b600a546001600160a01b03163314610d265760405162461bcd60e51b815260206004820152603060248201527f4f6e6c79206d61726b6574706c616365206f776e65722063616e20757064617460448201526f32903634b9ba34b73390383934b1b29760811b6064820152608401610537565b600955565b610d3533836110a9565b610d515760405162461bcd60e51b815260040161053790611e6d565b610d5d84848484611700565b50505050565b6000818152600b6020526040902060038101546001909101546001600160a01b0316348214610dfc576040805162461bcd60e51b81526020600482015260248101919091527f506c65617365207375626d6974207468652061736b696e67207072696365206960448201527f6e206f7264657220746f20636f6d706c657465207468652070757263686173656064820152608401610537565b6000838152600b602052604090206002810180546001600160a01b0319908116331790915560048201805460ff1916600190811790915590910180549091169055610e4b600880546001019055565b610e56303385611127565b600a546009546040516001600160a01b039092169181156108fc0291906000818181858888f19350505050158015610e92573d6000803e3d6000fd5b506040516001600160a01b038216903480156108fc02916000818181858888f19350505050158015610d5d573d6000803e3d6000fd5b6060610ed382610fd9565b60008281526006602052604081208054610eec90611f2a565b80601f0160208091040260200160405190810160405280929190818152602001828054610f1890611f2a565b8015610f655780601f10610f3a57610100808354040283529160200191610f65565b820191906000526020600020905b815481529060010190602001808311610f4857829003601f168201915b505050505090506000610f8360408051602081019091526000815290565b9050805160001415610f96575092915050565b815115610fc8578082604051602001610fb0929190611d20565b60405160208183030381529060405292505050919050565b610fd184611733565b949350505050565b6000818152600260205260409020546001600160a01b03166110385760405162461bcd60e51b8152602060048201526018602482015277115490cdcc8c4e881a5b9d985b1a59081d1bdad95b88125160421b6044820152606401610537565b50565b600081815260046020526040902080546001600160a01b0319166001600160a01b038416908117909155819061107082610b6d565b6001600160a01b03167f8c5be1e5ebec7d5bd14f71427d1e84f3dd0314c0f7b2291e5b200ac8c7c3b92560405160405180910390a45050565b6000806110b583610b6d565b9050806001600160a01b0316846001600160a01b031614806110fc57506001600160a01b0380821660009081526005602090815260408083209388168352929052205460ff165b80610fd15750836001600160a01b03166111158461049b565b6001600160a01b031614949350505050565b826001600160a01b031661113a82610b6d565b6001600160a01b03161461119e5760405162461bcd60e51b815260206004820152602560248201527f4552433732313a207472616e736665722066726f6d20696e636f72726563742060448201526437bbb732b960d91b6064820152608401610537565b6001600160a01b0382166112005760405162461bcd60e51b8152602060048201526024808201527f4552433732313a207472616e7366657220746f20746865207a65726f206164646044820152637265737360e01b6064820152608401610537565b61120b60008261103b565b6001600160a01b0383166000908152600360205260408120805460019290611234908490611ee7565b90915550506001600160a01b0382166000908152600360205260408120805460019290611262908490611ebb565b909155505060008181526002602052604080822080546001600160a01b0319166001600160a01b0386811691821790925591518493918716917fddf252ad1be2c89b69c2b068fc378daa952ba7f163c4a11628f55a4df523b3ef91a4505050565b6001600160a01b0382166113195760405162461bcd60e51b815260206004820181905260248201527f4552433732313a206d696e7420746f20746865207a65726f20616464726573736044820152606401610537565b6000818152600260205260409020546001600160a01b03161561137e5760405162461bcd60e51b815260206004820152601c60248201527f4552433732313a20746f6b656e20616c7265616479206d696e746564000000006044820152606401610537565b6001600160a01b03821660009081526003602052604081208054600192906113a7908490611ebb565b909155505060008181526002602052604080822080546001600160a01b0319166001600160a01b03861690811790915590518392907fddf252ad1be2c89b69c2b068fc378daa952ba7f163c4a11628f55a4df523b3ef908290a45050565b6000828152600260205260409020546001600160a01b03166114805760405162461bcd60e51b815260206004820152602e60248201527f45524337323155524953746f726167653a2055524920736574206f66206e6f6e60448201526d32bc34b9ba32b73a103a37b5b2b760911b6064820152608401610537565b600082815260066020908152604090912082516105d8928401906119b1565b600081116114ef5760405162461bcd60e51b815260206004820152601c60248201527f5072696365206d757374206265206174206c65617374203120776569000000006044820152606401610537565b600954341461154c5760405162461bcd60e51b8152602060048201526024808201527f5072696365206d75737420626520657175616c20746f206c697374696e6720706044820152637269636560e01b6064820152608401610537565b6040805160a08101825283815233602080830182815230848601818152606086018881526000608088018181528b8252600b909652979097209551865591516001860180546001600160a01b03199081166001600160a01b0393841617909155925160028701805490941691161790915593516003840155516004909201805460ff1916921515929092179091556115e49184611127565b604080513381523060208201529081018290526000606082015282907fb640004f1d14576d0c209e240cad0410e0d8c0c33a09375861fbadae2588a98d9060800160405180910390a25050565b816001600160a01b0316836001600160a01b031614156116935760405162461bcd60e51b815260206004820152601960248201527f4552433732313a20617070726f766520746f2063616c6c6572000000000000006044820152606401610537565b6001600160a01b03838116600081815260056020908152604080832094871680845294825291829020805460ff191686151590811790915591519182527f17307eab39ab6107e8899845ad3d59bd9653f200f220920489ca2b5937696c31910160405180910390a3505050565b61170b848484611127565b611717848484846117a6565b610d5d5760405162461bcd60e51b815260040161053790611e1b565b606061173e82610fd9565b600061175560408051602081019091526000815290565b905060008151116117755760405180602001604052806000815250610c8e565b8061177f846118b3565b604051602001611790929190611d20565b6040516020818303038152906040529392505050565b60006001600160a01b0384163b156118a857604051630a85bd0160e11b81526001600160a01b0385169063150b7a02906117ea903390899088908890600401611d4f565b602060405180830381600087803b15801561180457600080fd5b505af1925050508015611834575060408051601f3d908101601f1916820190925261183191810190611c65565b60015b61188e573d808015611862576040519150601f19603f3d011682016040523d82523d6000602084013e611867565b606091505b5080516118865760405162461bcd60e51b815260040161053790611e1b565b805181602001fd5b6001600160e01b031916630a85bd0160e11b149050610fd1565b506001949350505050565b6060816118d75750506040805180820190915260018152600360fc1b602082015290565b8160005b811561190157806118eb81611f65565b91506118fa9050600a83611ed3565b91506118db565b60008167ffffffffffffffff81111561191c5761191c611fd6565b6040519080825280601f01601f191660200182016040528015611946576020820181803683370190505b5090505b8415610fd15761195b600183611ee7565b9150611968600a86611f80565b611973906030611ebb565b60f81b81838151811061198857611988611fc0565b60200101906001600160f81b031916908160001a9053506119aa600a86611ed3565b945061194a565b8280546119bd90611f2a565b90600052602060002090601f0160209004810192826119df5760008555611a25565b82601f106119f857805160ff1916838001178555611a25565b82800160010185558215611a25579182015b82811115611a25578251825591602001919060010190611a0a565b50611a31929150611a35565b5090565b5b80821115611a315760008155600101611a36565b600067ffffffffffffffff80841115611a6557611a65611fd6565b604051601f8501601f19908116603f01168101908282118183101715611a8d57611a8d611fd6565b81604052809350858152868686011115611aa657600080fd5b858560208301376000602087830101525050509392505050565b80356001600160a01b0381168114611ad757600080fd5b919050565b600060208284031215611aee57600080fd5b610c8e82611ac0565b60008060408385031215611b0a57600080fd5b611b1383611ac0565b9150611b2160208401611ac0565b90509250929050565b600080600060608486031215611b3f57600080fd5b611b4884611ac0565b9250611b5660208501611ac0565b9150604084013590509250925092565b60008060008060808587031215611b7c57600080fd5b611b8585611ac0565b9350611b9360208601611ac0565b925060408501359150606085013567ffffffffffffffff811115611bb657600080fd5b8501601f81018713611bc757600080fd5b611bd687823560208401611a4a565b91505092959194509250565b60008060408385031215611bf557600080fd5b611bfe83611ac0565b915060208301358015158114611c1357600080fd5b809150509250929050565b60008060408385031215611c3157600080fd5b611c3a83611ac0565b946020939093013593505050565b600060208284031215611c5a57600080fd5b8135610c8e81611fec565b600060208284031215611c7757600080fd5b8151610c8e81611fec565b60008060408385031215611c9557600080fd5b823567ffffffffffffffff811115611cac57600080fd5b8301601f81018513611cbd57600080fd5b611ccc85823560208401611a4a565b95602094909401359450505050565b600060208284031215611ced57600080fd5b5035919050565b60008151808452611d0c816020860160208601611efe565b601f01601f19169290920160200192915050565b60008351611d32818460208801611efe565b835190830190611d46818360208801611efe565b01949350505050565b6001600160a01b0385811682528416602082015260408101839052608060608201819052600090611d8290830184611cf4565b9695505050505050565b602080825282518282018190526000919060409081850190868401855b82811015611dfb57815180518552868101516001600160a01b03908116888701528682015116868601526060808201519086015260809081015115159085015260a09093019290850190600101611da9565b5091979650505050505050565b602081526000610c8e6020830184611cf4565b60208082526032908201527f4552433732313a207472616e7366657220746f206e6f6e20455243373231526560408201527131b2b4bb32b91034b6b83632b6b2b73a32b960711b606082015260800190565b6020808252602e908201527f4552433732313a2063616c6c6572206973206e6f7420746f6b656e206f776e6560408201526d1c881b9bdc88185c1c1c9bdd995960921b606082015260800190565b60008219821115611ece57611ece611f94565b500190565b600082611ee257611ee2611faa565b500490565b600082821015611ef957611ef9611f94565b500390565b60005b83811015611f19578181015183820152602001611f01565b83811115610d5d5750506000910152565b600181811c90821680611f3e57607f821691505b60208210811415611f5f57634e487b7160e01b600052602260045260246000fd5b50919050565b6000600019821415611f7957611f79611f94565b5060010190565b600082611f8f57611f8f611faa565b500690565b634e487b7160e01b600052601160045260246000fd5b634e487b7160e01b600052601260045260246000fd5b634e487b7160e01b600052603260045260246000fd5b634e487b7160e01b600052604160045260246000fd5b6001600160e01b03198116811461103857600080fdfea26469706673582212208cb634fd116e59e08321416079920d4b51d0d79f7585540f06ecadce9105fee964736f6c63430008070033",
  "linkReferences": {},
  "deployedLinkReferences": {}
}